{
  "_format": "hh-sol-artifact-1",
  "contractName": "GitIssues",
  "sourceName": "contracts/facets/GitIssues.sol",
  "abi": [
    {
      "anonymous": false,
      "inputs": [
        {
          "indexed": false,
          "internalType": "string",
          "name": "Cid",
          "type": "string"
        }
      ],
      "name": "NewIssue",
      "type": "event"
    },
    {
      "inputs": [
        {
          "internalType": "bytes32",
          "name": "issueHash",
          "type": "bytes32"
        },
        {
          "internalType": "string",
          "name": "issueAnswerCid",
          "type": "string"
        }
      ],
      "name": "appendAnswerToIssue",
      "outputs": [],
      "stateMutability": "payable",
      "type": "function"
    },
    {
      "inputs": [],
      "name": "getAllIssues",
      "outputs": [
        {
          "internalType": "bytes32[]",
          "name": "",
          "type": "bytes32[]"
        }
      ],
      "stateMutability": "view",
      "type": "function"
    },
    {
      "inputs": [
        {
          "internalType": "bytes32",
          "name": "userCidHash",
          "type": "bytes32"
        }
      ],
      "name": "getIssue",
      "outputs": [
        {
          "components": [
            {
              "internalType": "bool",
              "name": "isActive",
              "type": "bool"
            },
            {
              "internalType": "enum GitIssues.IssueState",
              "name": "state",
              "type": "uint8"
            },
            {
              "internalType": "string",
              "name": "cid",
              "type": "string"
            },
            {
              "components": [
                {
                  "internalType": "string",
                  "name": "cid",
                  "type": "string"
                },
                {
                  "internalType": "address",
                  "name": "author",
                  "type": "address"
                }
              ],
              "internalType": "struct GitIssues.IssueText[]",
              "name": "issueAnswers",
              "type": "tuple[]"
            },
            {
              "internalType": "uint256",
              "name": "bounty",
              "type": "uint256"
            },
            {
              "internalType": "address",
              "name": "opener",
              "type": "address"
            },
            {
              "internalType": "address",
              "name": "resolver",
              "type": "address"
            },
            {
              "internalType": "uint256",
              "name": "resolvedBlockNumber",
              "type": "uint256"
            },
            {
              "internalType": "bool",
              "name": "resolved",
              "type": "bool"
            },
            {
              "internalType": "uint256",
              "name": "placeInList",
              "type": "uint256"
            },
            {
              "internalType": "uint256",
              "name": "issueNumber",
              "type": "uint256"
            }
          ],
          "internalType": "struct GitIssues.Issue",
          "name": "",
          "type": "tuple"
        }
      ],
      "stateMutability": "view",
      "type": "function"
    },
    {
      "inputs": [
        {
          "internalType": "address",
          "name": "opener",
          "type": "address"
        },
        {
          "internalType": "string",
          "name": "cid",
          "type": "string"
        }
      ],
      "name": "getUserCidHash",
      "outputs": [
        {
          "internalType": "bytes32",
          "name": "",
          "type": "bytes32"
        }
      ],
      "stateMutability": "pure",
      "type": "function"
    },
    {
      "inputs": [
        {
          "internalType": "string",
          "name": "issueCid",
          "type": "string"
        }
      ],
      "name": "openIssue",
      "outputs": [],
      "stateMutability": "payable",
      "type": "function"
    },
    {
      "inputs": [
        {
          "internalType": "bytes32",
          "name": "issueHash",
          "type": "bytes32"
        },
        {
          "internalType": "enum GitIssues.IssueState",
          "name": "state",
          "type": "uint8"
        }
      ],
      "name": "updateIssueState",
      "outputs": [],
      "stateMutability": "nonpayable",
      "type": "function"
    }
  ],
  "bytecode": "0x608060405234801561001057600080fd5b506125fc806100206000396000f3fe6080604052600436106100555760003560e01c80630b1585b41461005a5780634b3cf20014610076578063b04c92641461009f578063d3a41fda146100bb578063f4fcffa4146100f8578063f7e0816314610135575b600080fd5b610074600480360381019061006f9190611ceb565b610160565b005b34801561008257600080fd5b5061009d60048036038101906100989190611caf565b610483565b005b6100b960048036038101906100b49190611d43565b610f86565b005b3480156100c757600080fd5b506100e260048036038101906100dd9190611c32565b611329565b6040516100ef919061229e565b60405180910390f35b34801561010457600080fd5b5061011f600480360381019061011a9190611c86565b61135c565b60405161012c919061237b565b60405180910390f35b34801561014157600080fd5b5061014a61172e565b604051610157919061227c565b60405180910390f35b600061016a611795565b905080600001600085815260200190815260200160002060000160009054906101000a900460ff166101d1576040517f08c379a00000000000000000000000000000000000000000000000000000000081526004016101c89061235b565b60405180910390fd5b806000016000858152602001908152602001600020600201604051806040016040528085858080601f016020809104026020016040519081016040528093929190818152602001838380828437600081840152601f19601f8201169050808301925050505050505081526020013373ffffffffffffffffffffffffffffffffffffffff168152509080600181540180825580915050600190039060005260206000209060020201600090919091909150600082015181600001908051906020019061029d9291906117ef565b5060208201518160010160006101000a81548173ffffffffffffffffffffffffffffffffffffffff021916908373ffffffffffffffffffffffffffffffffffffffff1602179055505050600160028111156102f457fe5b81600001600086815260200190815260200160002060000160019054906101000a900460ff16600281111561032557fe5b14156103bb57600081600001600086815260200190815260200160002060000160016101000a81548160ff0219169083600281111561036057fe5b021790555060003411156103b6573373ffffffffffffffffffffffffffffffffffffffff166108fc349081150290604051600060405180830381858888f193505050501580156103b4573d6000803e3d6000fd5b505b61047d565b600034111561047c57600060028111156103d157fe5b81600001600086815260200190815260200160002060000160019054906101000a900460ff16600281111561040257fe5b141561043357348160000160008681526020019081526020016000206003016000828254019250508190555061047b565b3373ffffffffffffffffffffffffffffffffffffffff166108fc349081150290604051600060405180830381858888f19350505050158015610479573d6000803e3d6000fd5b505b5b5b50505050565b600061048d611795565b905080600001600084815260200190815260200160002060000160009054906101000a900460ff166104f4576040517f08c379a00000000000000000000000000000000000000000000000000000000081526004016104eb9061235b565b60405180910390fd5b6001600281111561050157fe5b82600281111561050d57fe5b1415610c64576000600281111561052057fe5b81600001600085815260200190815260200160002060000160019054906101000a900460ff16600281111561055157fe5b1480156105a3575060008160000160008581526020019081526020016000206003015414806105a2575080600001600084815260200190815260200160002060070160009054906101000a900460ff165b5b1561072a5760006105b26117c2565b905081600001600085815260200190815260200160002060040160009054906101000a900473ffffffffffffffffffffffffffffffffffffffff1673ffffffffffffffffffffffffffffffffffffffff163373ffffffffffffffffffffffffffffffffffffffff16148061067557508060000160009054906101000a900473ffffffffffffffffffffffffffffffffffffffff1673ffffffffffffffffffffffffffffffffffffffff163373ffffffffffffffffffffffffffffffffffffffff16145b156106e9578282600001600086815260200190815260200160002060000160016101000a81548160ff021916908360028111156106ae57fe5b0217905550600182600001600086815260200190815260200160002060070160006101000a81548160ff021916908315150217905550610724565b6040517f08c379a000000000000000000000000000000000000000000000000000000000815260040161071b9061231b565b60405180910390fd5b50610c5f565b60028081111561073657fe5b81600001600085815260200190815260200160002060000160019054906101000a900460ff16600281111561076757fe5b1480156107d757503373ffffffffffffffffffffffffffffffffffffffff1681600001600085815260200190815260200160002060040160009054906101000a900473ffffffffffffffffffffffffffffffffffffffff1673ffffffffffffffffffffffffffffffffffffffff16145b156109ca578181600001600085815260200190815260200160002060000160016101000a81548160ff0219169083600281111561081057fe5b0217905550600181600001600085815260200190815260200160002060070160006101000a81548160ff02191690831515021790555060006108506117c2565b9050600082600001600086815260200190815260200160002060030154905060008260010160009054906101000a900473ffffffffffffffffffffffffffffffffffffffff1673ffffffffffffffffffffffffffffffffffffffff16606483816108b657fe5b04614e20906040516108c790612237565b600060405180830381858888f193505050503d8060008114610905576040519150601f19603f3d011682016040523d82523d6000602084013e61090a565b606091505b505090508061091857600080fd5b83600001600087815260200190815260200160002060050160009054906101000a900473ffffffffffffffffffffffffffffffffffffffff1673ffffffffffffffffffffffffffffffffffffffff166108fc6064606385028161097757fe5b049081150290604051600060405180830381858888f193505050501580156109a3573d6000803e3d6000fd5b50600084600001600088815260200190815260200160002060030181905550505050610c5e565b6002808111156109d657fe5b81600001600085815260200190815260200160002060000160019054906101000a900460ff166002811115610a0757fe5b148015610a2f575060c881600001600085815260200190815260200160002060060154430310155b15610c22578181600001600085815260200190815260200160002060000160016101000a81548160ff02191690836002811115610a6857fe5b0217905550600181600001600085815260200190815260200160002060070160006101000a81548160ff0219169083151502179055506000610aa86117c2565b9050600082600001600086815260200190815260200160002060030154905060008260010160009054906101000a900473ffffffffffffffffffffffffffffffffffffffff1673ffffffffffffffffffffffffffffffffffffffff1660648381610b0e57fe5b04614e2090604051610b1f90612237565b600060405180830381858888f193505050503d8060008114610b5d576040519150601f19603f3d011682016040523d82523d6000602084013e610b62565b606091505b5050905080610b7057600080fd5b83600001600087815260200190815260200160002060050160009054906101000a900473ffffffffffffffffffffffffffffffffffffffff1673ffffffffffffffffffffffffffffffffffffffff166108fc60646063850281610bcf57fe5b049081150290604051600060405180830381858888f19350505050158015610bfb573d6000803e3d6000fd5b50600084600001600088815260200190815260200160002060030181905550505050610c5d565b6040517f08c379a0000000000000000000000000000000000000000000000000000000008152600401610c54906122fb565b60405180910390fd5b5b5b610f81565b600280811115610c7057fe5b826002811115610c7c57fe5b1415610e73576000610c8c6117c2565b905060006002811115610c9b57fe5b82600001600086815260200190815260200160002060000160019054906101000a900460ff166002811115610ccc57fe5b148015610cf15750600082600001600086815260200190815260200160002060030154115b8015610d20575081600001600085815260200190815260200160002060070160009054906101000a900460ff16155b8015610d7b57508060000160009054906101000a900473ffffffffffffffffffffffffffffffffffffffff1673ffffffffffffffffffffffffffffffffffffffff163373ffffffffffffffffffffffffffffffffffffffff16145b15610e32578282600001600086815260200190815260200160002060000160016101000a81548160ff02191690836002811115610db457fe5b02179055503382600001600086815260200190815260200160002060050160006101000a81548173ffffffffffffffffffffffffffffffffffffffff021916908373ffffffffffffffffffffffffffffffffffffffff1602179055504382600001600086815260200190815260200160002060060181905550610e6d565b6040517f08c379a0000000000000000000000000000000000000000000000000000000008152600401610e64906122db565b60405180910390fd5b50610f80565b60006002811115610e8057fe5b826002811115610e8c57fe5b1415610f7f57600280811115610e9e57fe5b81600001600085815260200190815260200160002060000160019054906101000a900460ff166002811115610ecf57fe5b148015610f3f575080600001600084815260200190815260200160002060040160009054906101000a900473ffffffffffffffffffffffffffffffffffffffff1673ffffffffffffffffffffffffffffffffffffffff163373ffffffffffffffffffffffffffffffffffffffff16145b15610f7e578181600001600085815260200190815260200160002060000160016101000a81548160ff02191690836002811115610f7857fe5b02179055505b5b5b5b505050565b6000610f90611795565b90506000610f9e3384611329565b9050600082600001600083815260200190815260200160002090508060000160009054906101000a900460ff166112e85760018160000160006101000a81548160ff02191690831515021790555060008160000160016101000a81548160ff0219169083600281111561100d57fe5b02179055508381600101908051906020019061102a9291906117ef565b50348160030181905550338160040160006101000a81548173ffffffffffffffffffffffffffffffffffffffff021916908373ffffffffffffffffffffffffffffffffffffffff1602179055508260010180549050816008018190555060008081548092919060010191905055506000548160090181905550808360000160008481526020019081526020016000206000820160009054906101000a900460ff168160000160006101000a81548160ff0219169083151502179055506000820160019054906101000a900460ff168160000160016101000a81548160ff0219169083600281111561111757fe5b02179055506001820181600101908054600181600116156101000203166002900461114392919061187d565b50600282018160020190805461115a929190611912565b50600382015481600301556004820160009054906101000a900473ffffffffffffffffffffffffffffffffffffffff168160040160006101000a81548173ffffffffffffffffffffffffffffffffffffffff021916908373ffffffffffffffffffffffffffffffffffffffff1602179055506005820160009054906101000a900473ffffffffffffffffffffffffffffffffffffffff168160050160006101000a81548173ffffffffffffffffffffffffffffffffffffffff021916908373ffffffffffffffffffffffffffffffffffffffff160217905550600682015481600601556007820160009054906101000a900460ff168160070160006101000a81548160ff0219169083151502179055506008820154816008015560098201548160090155905050826001018290806001815401808255809150506001900390600052602060002001600090919091909150557fc9f572debbbe00e80d07caaa15a1df7bd3c749ff4659a7ab73e147dade4630f2846040516112db91906122b9565b60405180910390a1611323565b6040517f08c379a000000000000000000000000000000000000000000000000000000000815260040161131a9061233b565b60405180910390fd5b50505050565b6000828260405160200161133e92919061224c565b60405160208183030381529060405280519060200120905092915050565b6113646119f9565b600061136e611795565b905080600001600084815260200190815260200160002060000160009054906101000a900460ff166113d5576040517f08c379a00000000000000000000000000000000000000000000000000000000081526004016113cc9061235b565b60405180910390fd5b806000016000848152602001908152602001600020604051806101600160405290816000820160009054906101000a900460ff161515151581526020016000820160019054906101000a900460ff16600281111561142f57fe5b600281111561143a57fe5b8152602001600182018054600181600116156101000203166002900480601f0160208091040260200160405190810160405280929190818152602001828054600181600116156101000203166002900480156114d75780601f106114ac576101008083540402835291602001916114d7565b820191906000526020600020905b8154815290600101906020018083116114ba57829003601f168201915b5050505050815260200160028201805480602002602001604051908101604052809291908181526020016000905b8282101561162f5783829060005260206000209060020201604051806040016040529081600082018054600181600116156101000203166002900480601f0160208091040260200160405190810160405280929190818152602001828054600181600116156101000203166002900480156115c15780601f10611596576101008083540402835291602001916115c1565b820191906000526020600020905b8154815290600101906020018083116115a457829003601f168201915b505050505081526020016001820160009054906101000a900473ffffffffffffffffffffffffffffffffffffffff1673ffffffffffffffffffffffffffffffffffffffff1673ffffffffffffffffffffffffffffffffffffffff168152505081526020019060010190611505565b505050508152602001600382015481526020016004820160009054906101000a900473ffffffffffffffffffffffffffffffffffffffff1673ffffffffffffffffffffffffffffffffffffffff1673ffffffffffffffffffffffffffffffffffffffff1681526020016005820160009054906101000a900473ffffffffffffffffffffffffffffffffffffffff1673ffffffffffffffffffffffffffffffffffffffff1673ffffffffffffffffffffffffffffffffffffffff168152602001600682015481526020016007820160009054906101000a900460ff1615151515815260200160088201548152602001600982015481525050915050919050565b6060600061173a611795565b90508060010180548060200260200160405190810160405280929190818152602001828054801561178a57602002820191906000526020600020905b815481526020019060010190808311611776575b505050505091505090565b6000807fc4447f770f59a8052de8b8718ba780ff420b97521bfe0337fa233307d3e5c96d90508091505090565b6000807fcda474466355d557cbe45e4216caf1702767769836ab9be7c9c775dafc95a0b090508091505090565b828054600181600116156101000203166002900490600052602060002090601f016020900481019282611825576000855561186c565b82601f1061183e57805160ff191683800117855561186c565b8280016001018555821561186c579182015b8281111561186b578251825591602001919060010190611850565b5b5090506118799190611a8e565b5090565b828054600181600116156101000203166002900490600052602060002090601f0160209004810192826118b35760008555611901565b82601f106118c45780548555611901565b8280016001018555821561190157600052602060002091601f016020900482015b828111156119005782548255916001019190600101906118e5565b5b50905061190e9190611a8e565b5090565b8280548282559060005260206000209060020281019282156119e85760005260206000209160020282015b828111156119e75782826000820181600001908054600181600116156101000203166002900461196e92919061187d565b506001820160009054906101000a900473ffffffffffffffffffffffffffffffffffffffff168160010160006101000a81548173ffffffffffffffffffffffffffffffffffffffff021916908373ffffffffffffffffffffffffffffffffffffffff16021790555050509160020191906002019061193d565b5b5090506119f59190611aab565b5090565b60405180610160016040528060001515815260200160006002811115611a1b57fe5b8152602001606081526020016060815260200160008152602001600073ffffffffffffffffffffffffffffffffffffffff168152602001600073ffffffffffffffffffffffffffffffffffffffff1681526020016000815260200160001515815260200160008152602001600081525090565b5b80821115611aa7576000816000905550600101611a8f565b5090565b5b80821115611af55760008082016000611ac59190611af9565b6001820160006101000a81549073ffffffffffffffffffffffffffffffffffffffff021916905550600201611aac565b5090565b50805460018160011615610100020316600290046000825580601f10611b1f5750611b3e565b601f016020900490600052602060002090810190611b3d9190611a8e565b5b50565b6000611b54611b4f846123ce565b61239d565b905082815260208101848484011115611b6c57600080fd5b611b7784828561251f565b509392505050565b600081359050611b8e81612588565b92915050565b600081359050611ba38161259f565b92915050565b600081359050611bb8816125b6565b92915050565b60008083601f840112611bd057600080fd5b8235905067ffffffffffffffff811115611be957600080fd5b602083019150836001820283011115611c0157600080fd5b9250929050565b600082601f830112611c1957600080fd5b8135611c29848260208601611b41565b91505092915050565b60008060408385031215611c4557600080fd5b6000611c5385828601611b7f565b925050602083013567ffffffffffffffff811115611c7057600080fd5b611c7c85828601611c08565b9150509250929050565b600060208284031215611c9857600080fd5b6000611ca684828501611b94565b91505092915050565b60008060408385031215611cc257600080fd5b6000611cd085828601611b94565b9250506020611ce185828601611ba9565b9150509250929050565b600080600060408486031215611d0057600080fd5b6000611d0e86828701611b94565b935050602084013567ffffffffffffffff811115611d2b57600080fd5b611d3786828701611bbe565b92509250509250925092565b600060208284031215611d5557600080fd5b600082013567ffffffffffffffff811115611d6f57600080fd5b611d7b84828501611c08565b91505092915050565b6000611d908383611eb0565b60208301905092915050565b6000611da883836120f5565b905092915050565b611db9816124a8565b82525050565b611dc8816124a8565b82525050565b6000611dd98261241e565b611de38185612459565b9350611dee836123fe565b8060005b83811015611e1f578151611e068882611d84565b9750611e118361243f565b925050600181019050611df2565b5085935050505092915050565b6000611e3782612429565b611e41818561246a565b935083602082028501611e538561240e565b8060005b85811015611e8f5784840389528151611e708582611d9c565b9450611e7b8361244c565b925060208a01995050600181019050611e57565b50829750879550505050505092915050565b611eaa816124ba565b82525050565b611eb9816124c6565b82525050565b611ec8816124c6565b82525050565b611ed78161250d565b82525050565b6000611ee882612434565b611ef28185612486565b9350611f0281856020860161252e565b611f0b81612563565b840191505092915050565b6000611f2182612434565b611f2b8185612497565b9350611f3b81856020860161252e565b611f4481612563565b840191505092915050565b6000611f5c601783612497565b91507f43616e2774207265736f6c7665207468652069737375650000000000000000006000830152602082019050919050565b6000611f9c601583612497565b91507f43616e277420636c6f73652074686520697373756500000000000000000000006000830152602082019050919050565b6000611fdc603183612497565b91507f596f7520646f6e2774206861766520746865207065726d697373696f6e20746f60008301527f20636c6f736520746869732069737375650000000000000000000000000000006020830152604082019050919050565b6000612042601983612497565b91507f4f70656e2069737375652065786973747320616c7265616479000000000000006000830152602082019050919050565b600061208260008361247b565b9150600082019050919050565b600061209c602383612497565b91507f4973737565207769746820676976656e2063696420646f6573206e6f7420657860008301527f69737400000000000000000000000000000000000000000000000000000000006020830152604082019050919050565b600060408301600083015184820360008601526121128282611edd565b91505060208301516121276020860182611db0565b508091505092915050565b60006101608301600083015161214b6000860182611ea1565b50602083015161215e6020860182611ece565b50604083015184820360408601526121768282611edd565b915050606083015184820360608601526121908282611e2c565b91505060808301516121a56080860182612228565b5060a08301516121b860a0860182611db0565b5060c08301516121cb60c0860182611db0565b5060e08301516121de60e0860182612228565b506101008301516121f3610100860182611ea1565b50610120830151612208610120860182612228565b5061014083015161221d610140860182612228565b508091505092915050565b61223181612503565b82525050565b600061224282612075565b9150819050919050565b60006040820190506122616000830185611dbf565b81810360208301526122738184611f16565b90509392505050565b600060208201905081810360008301526122968184611dce565b905092915050565b60006020820190506122b36000830184611ebf565b92915050565b600060208201905081810360008301526122d38184611f16565b905092915050565b600060208201905081810360008301526122f481611f4f565b9050919050565b6000602082019050818103600083015261231481611f8f565b9050919050565b6000602082019050818103600083015261233481611fcf565b9050919050565b6000602082019050818103600083015261235481612035565b9050919050565b600060208201905081810360008301526123748161208f565b9050919050565b600060208201905081810360008301526123958184612132565b905092915050565b6000604051905081810181811067ffffffffffffffff821117156123c4576123c3612561565b5b8060405250919050565b600067ffffffffffffffff8211156123e9576123e8612561565b5b601f19601f8301169050602081019050919050565b6000819050602082019050919050565b6000819050602082019050919050565b600081519050919050565b600081519050919050565b600081519050919050565b6000602082019050919050565b6000602082019050919050565b600082825260208201905092915050565b600082825260208201905092915050565b600081905092915050565b600082825260208201905092915050565b600082825260208201905092915050565b60006124b3826124e3565b9050919050565b60008115159050919050565b6000819050919050565b60008190506124de82612574565b919050565b600073ffffffffffffffffffffffffffffffffffffffff82169050919050565b6000819050919050565b6000612518826124d0565b9050919050565b82818337600083830152505050565b60005b8381101561254c578082015181840152602081019050612531565b8381111561255b576000848401525b50505050565bfe5b6000601f19601f8301169050919050565b6003811061258557612584612561565b5b50565b612591816124a8565b811461259c57600080fd5b50565b6125a8816124c6565b81146125b357600080fd5b50565b600381106125c357600080fd5b5056fea2646970667358221220e0db12e34b53528767bebcce9693fc57ea9c029e627b07564b558e86677e703a64736f6c63430007060033",
  "linkReferences": {},
  "deployedLinkReferences": {}
}