{
  "_format": "hh-sol-artifact-1",
  "contractName": "GitRepositoryManagement",
  "sourceName": "contracts/facets/GitRepositoryManagement.sol",
  "abi": [
    {
      "inputs": [],
      "name": "getRepositoryInfo",
      "outputs": [
        {
          "internalType": "address",
          "name": "contractOwner",
          "type": "address"
        },
        {
          "internalType": "contract GitFactory",
          "name": "factory",
          "type": "address"
        },
        {
          "internalType": "string",
          "name": "name",
          "type": "string"
        },
        {
          "internalType": "uint256",
          "name": "userIndex",
          "type": "uint256"
        },
        {
          "internalType": "uint256",
          "name": "repoIndex",
          "type": "uint256"
        },
        {
          "internalType": "uint256",
          "name": "donations",
          "type": "uint256"
        }
      ],
      "stateMutability": "view",
      "type": "function"
    },
    {
      "inputs": [
        {
          "internalType": "uint256",
          "name": "_newRepoIndex",
          "type": "uint256"
        }
      ],
      "name": "updateRepoIndex",
      "outputs": [],
      "stateMutability": "nonpayable",
      "type": "function"
    },
    {
      "inputs": [
        {
          "internalType": "uint256",
          "name": "_newUserIndex",
          "type": "uint256"
        }
      ],
      "name": "updateUserIndex",
      "outputs": [],
      "stateMutability": "nonpayable",
      "type": "function"
    }
  ],
  "bytecode": "0x608060405234801561001057600080fd5b506104a5806100206000396000f3fe608060405234801561001057600080fd5b50600436106100415760003560e01c8063708da6f4146100465780639ea6036e14610074578063d035b559146100a2575b600080fd5b6100726004803603602081101561005c57600080fd5b8101908080359060200190929190505050610174565b005b6100a06004803603602081101561008a57600080fd5b8101908080359060200190929190505050610235565b005b6100aa6102f6565b604051808773ffffffffffffffffffffffffffffffffffffffff1681526020018673ffffffffffffffffffffffffffffffffffffffff16815260200180602001858152602001848152602001838152602001828103825286818151815260200191508051906020019080838360005b83811015610134578082015181840152602081019050610119565b50505050905090810190601f1680156101615780820380516001836020036101000a031916815260200191505b5097505050505050505060405180910390f35b600061017e610419565b90508060010160009054906101000a900473ffffffffffffffffffffffffffffffffffffffff1673ffffffffffffffffffffffffffffffffffffffff163373ffffffffffffffffffffffffffffffffffffffff1614610228576040517f08c379a00000000000000000000000000000000000000000000000000000000081526004018080602001828103825260298152602001806104476029913960400191505060405180910390fd5b8181600401819055505050565b600061023f610419565b90508060010160009054906101000a900473ffffffffffffffffffffffffffffffffffffffff1673ffffffffffffffffffffffffffffffffffffffff163373ffffffffffffffffffffffffffffffffffffffff16146102e9576040517f08c379a00000000000000000000000000000000000000000000000000000000081526004018080602001828103825260298152602001806104476029913960400191505060405180910390fd5b8181600301819055505050565b6000806060600080600080610309610419565b90508060000160009054906101000a900473ffffffffffffffffffffffffffffffffffffffff168160010160009054906101000a900473ffffffffffffffffffffffffffffffffffffffff1682600201836003015484600401548560050154838054600181600116156101000203166002900480601f0160208091040260200160405190810160405280929190818152602001828054600181600116156101000203166002900480156103fd5780601f106103d2576101008083540402835291602001916103fd565b820191906000526020600020905b8154815290600101906020018083116103e057829003601f168201915b5050505050935096509650965096509650965050909192939495565b6000807fcda474466355d557cbe45e4216caf1702767769836ab9be7c9c775dafc95a0b09050809150509056fe596f7520617265206e6f7420616c6c6f776420746f20706572666f726d207468697320616374696f6ea26469706673582212208a4fb2c205cc233887118ef13fddc7fbdf66a6db860fc00414fd6e9e9b738e4164736f6c63430007060033",
  "linkReferences": {},
  "deployedLinkReferences": {}
}