{
  "_format": "hh-sol-artifact-1",
  "contractName": "GitBranch",
  "sourceName": "contracts/repo_facets/GitBranch.sol",
  "abi": [
    {
      "anonymous": false,
      "inputs": [
        {
          "indexed": false,
          "internalType": "string",
          "name": "branch",
          "type": "string"
        },
        {
          "indexed": false,
          "internalType": "string",
          "name": "Cid",
          "type": "string"
        }
      ],
      "name": "NewPush",
      "type": "event"
    },
    {
      "inputs": [
        {
          "internalType": "string",
          "name": "branchName",
          "type": "string"
        }
      ],
      "name": "getBranch",
      "outputs": [
        {
          "components": [
            {
              "internalType": "bool",
              "name": "isActive",
              "type": "bool"
            },
            {
              "internalType": "string",
              "name": "headCid",
              "type": "string"
            }
          ],
          "internalType": "struct GitBranch.Branch",
          "name": "",
          "type": "tuple"
        }
      ],
      "stateMutability": "view",
      "type": "function"
    },
    {
      "inputs": [],
      "name": "getBranchNames",
      "outputs": [
        {
          "internalType": "string[]",
          "name": "",
          "type": "string[]"
        }
      ],
      "stateMutability": "view",
      "type": "function"
    },
    {
      "inputs": [
        {
          "internalType": "string",
          "name": "branch",
          "type": "string"
        },
        {
          "internalType": "string",
          "name": "newCid",
          "type": "string"
        }
      ],
      "name": "push",
      "outputs": [],
      "stateMutability": "nonpayable",
      "type": "function"
    },
    {
      "inputs": [],
      "name": "readRemoteBranchNamesIntoStorage",
      "outputs": [],
      "stateMutability": "nonpayable",
      "type": "function"
    }
  ],
  "bytecode": "0x608060405234801561001057600080fd5b50611494806100206000396000f3fe608060405234801561001057600080fd5b506004361061004c5760003560e01c806345460ce9146100515780639afb034214610081578063aa7ee23b1461008b578063f8761376146100a9575b600080fd5b61006b60048036038101906100669190610d91565b6100c5565b60405161007891906112c6565b60405180910390f35b6100896103df565b005b610093610601565b6040516100a091906111c9565b60405180910390f35b6100c360048036038101906100be9190610dd6565b6106f9565b005b6100cd610a6f565b60006100d76109e8565b905060006100e3610a15565b90508160060160009054906101000a900460ff16156102ea57806003018585604051610110929190611199565b908152602001604051809103902060000160009054906101000a900460ff161561022757806000018585604051610148929190611199565b90815260200160405180910390206040518060400160405290816000820160009054906101000a900460ff16151515158152602001600182018054600181600116156101000203166002900480601f0160208091040260200160405190810160405280929190818152602001828054600181600116156101000203166002900480156102155780601f106101ea57610100808354040283529160200191610215565b820191906000526020600020905b8154815290600101906020018083116101f857829003601f168201915b505050505081525050925050506103d9565b60008260060160019054906101000a900473ffffffffffffffffffffffffffffffffffffffff1690508073ffffffffffffffffffffffffffffffffffffffff166345460ce987876040518363ffffffff1660e01b815260040161028b9291906111eb565b60006040518083038186803b1580156102a357600080fd5b505afa1580156102b7573d6000803e3d6000fd5b505050506040513d6000823e3d601f19601f820116820180604052508101906102e09190610e42565b93505050506103d9565b8060000185856040516102fe929190611199565b90815260200160405180910390206040518060400160405290816000820160009054906101000a900460ff16151515158152602001600182018054600181600116156101000203166002900480601f0160208091040260200160405190810160405280929190818152602001828054600181600116156101000203166002900480156103cb5780601f106103a0576101008083540402835291602001916103cb565b820191906000526020600020905b8154815290600101906020018083116103ae57829003601f168201915b505050505081525050925050505b92915050565b6103e7610a42565b60010160009054906101000a900473ffffffffffffffffffffffffffffffffffffffff1673ffffffffffffffffffffffffffffffffffffffff163373ffffffffffffffffffffffffffffffffffffffff1614610478576040517f08c379a000000000000000000000000000000000000000000000000000000000815260040161046f90611246565b60405180910390fd5b60006104826109e8565b90508060060160009054906101000a900460ff1680156104b157508060060160159054906101000a900460ff16155b156105fe5760008160060160019054906101000a900473ffffffffffffffffffffffffffffffffffffffff16905060006104e9610a15565b905060008273ffffffffffffffffffffffffffffffffffffffff1663aa7ee23b6040518163ffffffff1660e01b815260040160006040518083038186803b15801561053357600080fd5b505afa158015610547573d6000803e3d6000fd5b505050506040513d6000823e3d601f19601f820116820180604052508101906105709190610d50565b905060005b81518110156105dc578260010182828151811061058e57fe5b60200260200101519080600181540180825580915050600190039060005260206000200160009091909190915090805190602001906105ce929190610a8b565b508080600101915050610575565b5060018460060160156101000a81548160ff0219169083151502179055505050505b50565b6060600061060d610a15565b905080600101805480602002602001604051908101604052809291908181526020016000905b828210156106ef578382906000526020600020018054600181600116156101000203166002900480601f0160208091040260200160405190810160405280929190818152602001828054600181600116156101000203166002900480156106db5780601f106106b0576101008083540402835291602001916106db565b820191906000526020600020905b8154815290600101906020018083116106be57829003601f168201915b505050505081526020019060010190610633565b5050505091505090565b600082511161073d576040517f08c379a0000000000000000000000000000000000000000000000000000000008152600401610734906112a6565b60405180910390fd5b6000815111610781576040517f08c379a000000000000000000000000000000000000000000000000000000000815260040161077890611286565b60405180910390fd5b600061078b6109e8565b90503373ffffffffffffffffffffffffffffffffffffffff168160000160009054906101000a900473ffffffffffffffffffffffffffffffffffffffff1673ffffffffffffffffffffffffffffffffffffffff161461081f576040517f08c379a000000000000000000000000000000000000000000000000000000000815260040161081690611266565b60405180910390fd5b6000610829610a15565b9050806000018460405161083d91906111b2565b908152602001604051809103902060000160009054906101000a900460ff161561089e5782816000018560405161087491906111b2565b90815260200160405180910390206001019080519060200190610898929190610a8b565b50610955565b60405180604001604052806001151581526020018481525081600001856040516108c891906111b2565b908152602001604051809103902060008201518160000160006101000a81548160ff0219169083151502179055506020820151816001019080519060200190610912929190610a8b565b509050508060010184908060018154018082558091505060019003906000526020600020016000909190919091509080519060200190610953929190610a8b565b505b8160060160009054906101000a900460ff16156109a9576001816003018560405161098091906111b2565b908152602001604051809103902060000160006101000a81548160ff0219169083151502179055505b7ff430c52db303dead99d87fc1ee0ec39f0225663bad1d64f070153975edff90e484846040516109da92919061120f565b60405180910390a150505050565b6000807fcda474466355d557cbe45e4216caf1702767769836ab9be7c9c775dafc95a0b090508091505090565b6000807f293babfe667d98cdff64efb5a2746fec30d863e1f431d4fd5388d7ef648adb0b90508091505090565b6000807fcda474466355d557cbe45e4216caf1702767769836ab9be7c9c775dafc95a0b090508091505090565b6040518060400160405280600015158152602001606081525090565b828054600181600116156101000203166002900490600052602060002090601f016020900481019282610ac15760008555610b08565b82601f10610ada57805160ff1916838001178555610b08565b82800160010185558215610b08579182015b82811115610b07578251825591602001919060010190610aec565b5b509050610b159190610b19565b5090565b5b80821115610b32576000816000905550600101610b1a565b5090565b6000610b49610b4484611319565b6112e8565b9050808382526020820190508260005b85811015610b895781518501610b6f8882610cc2565b845260208401935060208301925050600181019050610b59565b5050509392505050565b6000610ba6610ba184611345565b6112e8565b905082815260208101848484011115610bbe57600080fd5b610bc98482856113f2565b509392505050565b6000610be4610bdf84611345565b6112e8565b905082815260208101848484011115610bfc57600080fd5b610c07848285611401565b509392505050565b600082601f830112610c2057600080fd5b8151610c30848260208601610b36565b91505092915050565b600081519050610c4881611447565b92915050565b60008083601f840112610c6057600080fd5b8235905067ffffffffffffffff811115610c7957600080fd5b602083019150836001820283011115610c9157600080fd5b9250929050565b600082601f830112610ca957600080fd5b8135610cb9848260208601610b93565b91505092915050565b600082601f830112610cd357600080fd5b8151610ce3848260208601610bd1565b91505092915050565b600060408284031215610cfe57600080fd5b610d0860406112e8565b90506000610d1884828501610c39565b600083015250602082015167ffffffffffffffff811115610d3857600080fd5b610d4484828501610cc2565b60208301525092915050565b600060208284031215610d6257600080fd5b600082015167ffffffffffffffff811115610d7c57600080fd5b610d8884828501610c0f565b91505092915050565b60008060208385031215610da457600080fd5b600083013567ffffffffffffffff811115610dbe57600080fd5b610dca85828601610c4e565b92509250509250929050565b60008060408385031215610de957600080fd5b600083013567ffffffffffffffff811115610e0357600080fd5b610e0f85828601610c98565b925050602083013567ffffffffffffffff811115610e2c57600080fd5b610e3885828601610c98565b9150509250929050565b600060208284031215610e5457600080fd5b600082015167ffffffffffffffff811115610e6e57600080fd5b610e7a84828501610cec565b91505092915050565b6000610e8f8383610f6d565b905092915050565b6000610ea282611385565b610eac81856113a8565b935083602082028501610ebe85611375565b8060005b85811015610efa5784840389528151610edb8582610e83565b9450610ee68361139b565b925060208a01995050600181019050610ec2565b50829750879550505050505092915050565b610f15816113e6565b82525050565b6000610f2783856113ca565b9350610f348385846113f2565b610f3d83611436565b840190509392505050565b6000610f5483856113db565b9350610f618385846113f2565b82840190509392505050565b6000610f7882611390565b610f8281856113b9565b9350610f92818560208601611401565b610f9b81611436565b840191505092915050565b6000610fb182611390565b610fbb81856113ca565b9350610fcb818560208601611401565b610fd481611436565b840191505092915050565b6000610fea82611390565b610ff481856113db565b9350611004818560208601611401565b80840191505092915050565b600061101d6026836113ca565b91507f4f6e6c7920476974466163746f72792063616e2063616c6c207468697320667560008301527f6e6374696f6e00000000000000000000000000000000000000000000000000006020830152604082019050919050565b60006110836028836113ca565b91507f4f6e6c79206f776e6572206f66207265706f7369746f72792069732061626c6560008301527f20746f20707573680000000000000000000000000000000000000000000000006020830152604082019050919050565b60006110e9600f836113ca565b91507f4e6f204349442070726f766964656400000000000000000000000000000000006000830152602082019050919050565b60006111296017836113ca565b91507f4e6f206272616e6368206e616d652070726f76696465640000000000000000006000830152602082019050919050565b60006040830160008301516111746000860182610f0c565b506020830151848203602086015261118c8282610f6d565b9150508091505092915050565b60006111a6828486610f48565b91508190509392505050565b60006111be8284610fdf565b915081905092915050565b600060208201905081810360008301526111e38184610e97565b905092915050565b60006020820190508181036000830152611206818486610f1b565b90509392505050565b600060408201905081810360008301526112298185610fa6565b9050818103602083015261123d8184610fa6565b90509392505050565b6000602082019050818103600083015261125f81611010565b9050919050565b6000602082019050818103600083015261127f81611076565b9050919050565b6000602082019050818103600083015261129f816110dc565b9050919050565b600060208201905081810360008301526112bf8161111c565b9050919050565b600060208201905081810360008301526112e0818461115c565b905092915050565b6000604051905081810181811067ffffffffffffffff8211171561130f5761130e611434565b5b8060405250919050565b600067ffffffffffffffff82111561133457611333611434565b5b602082029050602081019050919050565b600067ffffffffffffffff8211156113605761135f611434565b5b601f19601f8301169050602081019050919050565b6000819050602082019050919050565b600081519050919050565b600081519050919050565b6000602082019050919050565b600082825260208201905092915050565b600082825260208201905092915050565b600082825260208201905092915050565b600081905092915050565b60008115159050919050565b82818337600083830152505050565b60005b8381101561141f578082015181840152602081019050611404565b8381111561142e576000848401525b50505050565bfe5b6000601f19601f8301169050919050565b611450816113e6565b811461145b57600080fd5b5056fea2646970667358221220f4b35fb36eb200fb88a3846ebc30b5c93a14bd9c52e2fe07c53dc8e017758a1a64736f6c63430007060033",
  "linkReferences": {},
  "deployedLinkReferences": {}
}