{
  "_format": "hh-sol-artifact-1",
  "contractName": "GitTips",
  "sourceName": "contracts/facets/GitTips.sol",
  "abi": [
    {
      "inputs": [],
      "name": "collectTips",
      "outputs": [],
      "stateMutability": "nonpayable",
      "type": "function"
    },
    {
      "inputs": [],
      "name": "getTips",
      "outputs": [
        {
          "internalType": "uint256",
          "name": "",
          "type": "uint256"
        }
      ],
      "stateMutability": "view",
      "type": "function"
    }
  ],
  "bytecode": "0x608060405234801561001057600080fd5b506102c9806100206000396000f3fe608060405234801561001057600080fd5b50600436106100365760003560e01c80636d9342fd1461003b57806388e4a07314610045575b600080fd5b610043610063565b005b61004d610183565b60405161005a919061025d565b60405180910390f35b600061006d61019b565b90508060000160009054906101000a900473ffffffffffffffffffffffffffffffffffffffff1673ffffffffffffffffffffffffffffffffffffffff163373ffffffffffffffffffffffffffffffffffffffff1614610101576040517f08c379a00000000000000000000000000000000000000000000000000000000081526004016100f89061023d565b60405180910390fd5b600081600501549050600082600501819055508160000160009054906101000a900473ffffffffffffffffffffffffffffffffffffffff1673ffffffffffffffffffffffffffffffffffffffff166108fc829081150290604051600060405180830381858888f1935050505015801561017e573d6000803e3d6000fd5b505050565b60008061018e61019b565b9050806005015491505090565b6000807fcda474466355d557cbe45e4216caf1702767769836ab9be7c9c775dafc95a0b090508091505090565b60006101d5602983610278565b91507f596f7520617265206e6f7420616c6c6f776420746f20706572666f726d20746860008301527f697320616374696f6e00000000000000000000000000000000000000000000006020830152604082019050919050565b61023781610289565b82525050565b60006020820190508181036000830152610256816101c8565b9050919050565b6000602082019050610272600083018461022e565b92915050565b600082825260208201905092915050565b600081905091905056fea264697066735822122082ca782844f46fdcb3ed049b1ad55af53dfe2e51e0329473310c6dc2e3ee9ca164736f6c63430007060033",
  "linkReferences": {},
  "deployedLinkReferences": {}
}