{
  "_format": "hh-sol-artifact-1",
  "contractName": "GitContractRegistry",
  "sourceName": "contracts/GitContractRegistry.sol",
  "abi": [
    {
      "inputs": [
        {
          "components": [
            {
              "internalType": "address",
              "name": "facetAddress",
              "type": "address"
            },
            {
              "internalType": "bytes4[]",
              "name": "functionSelectors",
              "type": "bytes4[]"
            }
          ],
          "internalType": "struct GitContractRegistry.FacetCut[]",
          "name": "_diamondCut",
          "type": "tuple[]"
        }
      ],
      "stateMutability": "nonpayable",
      "type": "constructor"
    },
    {
      "anonymous": false,
      "inputs": [
        {
          "indexed": true,
          "internalType": "address",
          "name": "previousOwner",
          "type": "address"
        },
        {
          "indexed": true,
          "internalType": "address",
          "name": "newOwner",
          "type": "address"
        }
      ],
      "name": "OwnershipTransferred",
      "type": "event"
    },
    {
      "inputs": [
        {
          "internalType": "address",
          "name": "_contractAddress",
          "type": "address"
        },
        {
          "internalType": "bytes4[]",
          "name": "_functionSelectors",
          "type": "bytes4[]"
        }
      ],
      "name": "addContractAddress",
      "outputs": [],
      "stateMutability": "nonpayable",
      "type": "function"
    },
    {
      "inputs": [
        {
          "internalType": "uint256",
          "name": "",
          "type": "uint256"
        }
      ],
      "name": "contractAddress",
      "outputs": [
        {
          "internalType": "bool",
          "name": "isActive",
          "type": "bool"
        },
        {
          "internalType": "address",
          "name": "contractAddress",
          "type": "address"
        }
      ],
      "stateMutability": "view",
      "type": "function"
    },
    {
      "inputs": [
        {
          "internalType": "bytes4",
          "name": "",
          "type": "bytes4"
        }
      ],
      "name": "contractAddressIndex",
      "outputs": [
        {
          "internalType": "bool",
          "name": "isActive",
          "type": "bool"
        },
        {
          "internalType": "uint256",
          "name": "index",
          "type": "uint256"
        }
      ],
      "stateMutability": "view",
      "type": "function"
    },
    {
      "inputs": [
        {
          "internalType": "bytes4",
          "name": "_functionSelector",
          "type": "bytes4"
        }
      ],
      "name": "getContractAddress",
      "outputs": [
        {
          "internalType": "address",
          "name": "",
          "type": "address"
        }
      ],
      "stateMutability": "view",
      "type": "function"
    },
    {
      "inputs": [],
      "name": "owner",
      "outputs": [
        {
          "internalType": "address",
          "name": "",
          "type": "address"
        }
      ],
      "stateMutability": "view",
      "type": "function"
    },
    {
      "inputs": [
        {
          "internalType": "bytes4[]",
          "name": "_functionSelectors",
          "type": "bytes4[]"
        }
      ],
      "name": "removeContractAddress",
      "outputs": [],
      "stateMutability": "nonpayable",
      "type": "function"
    },
    {
      "inputs": [],
      "name": "renounceOwnership",
      "outputs": [],
      "stateMutability": "nonpayable",
      "type": "function"
    },
    {
      "inputs": [
        {
          "internalType": "address",
          "name": "newOwner",
          "type": "address"
        }
      ],
      "name": "transferOwnership",
      "outputs": [],
      "stateMutability": "nonpayable",
      "type": "function"
    }
  ],
  "bytecode": "0x60806040523480156200001157600080fd5b5060405162001533380380620015338339818101604052810190620000379190620004b5565b600062000049620002df60201b60201c565b9050806000806101000a81548173ffffffffffffffffffffffffffffffffffffffff021916908373ffffffffffffffffffffffffffffffffffffffff1602179055508073ffffffffffffffffffffffffffffffffffffffff16600073ffffffffffffffffffffffffffffffffffffffff167f8be0079c531659141344cd1fd0a4f28419497f9722a3daafe3b4186f6b6457e060405160405180910390a350600060018190555060005b8151811015620002d75760405180604001604052806001151581526020018383815181106200011d57fe5b60200260200101516000015173ffffffffffffffffffffffffffffffffffffffff1681525060036000600154815260200190815260200160002060008201518160000160006101000a81548160ff02191690831515021790555060208201518160000160016101000a81548173ffffffffffffffffffffffffffffffffffffffff021916908373ffffffffffffffffffffffffffffffffffffffff16021790555090505060005b828281518110620001d157fe5b60200260200101516020015151811015620002b8576040518060400160405280600115158152602001600154815250600260008585815181106200021157fe5b60200260200101516020015184815181106200022957fe5b60200260200101517bffffffffffffffffffffffffffffffffffffffffffffffffffffffff19167bffffffffffffffffffffffffffffffffffffffffffffffffffffffff1916815260200190815260200160002060008201518160000160006101000a81548160ff021916908315150217905550602082015181600101559050508080600101915050620001c4565b50600180600082825401925050819055508080600101915050620000f2565b505062000622565b600033905090565b6000620002fe620002f8846200052e565b620004fa565b905080838252602082019050828560208602820111156200031e57600080fd5b60005b8581101562000352578162000337888262000432565b84526020840193506020830192505060018101905062000321565b5050509392505050565b6000620003736200036d846200055d565b620004fa565b9050808382526020820190508260005b85811015620003b757815185016200039c888262000449565b84526020840193506020830192505060018101905062000383565b5050509392505050565b600081519050620003d281620005ee565b92915050565b600082601f830112620003ea57600080fd5b8151620003fc848260208601620002e7565b91505092915050565b600082601f8301126200041757600080fd5b8151620004298482602086016200035c565b91505092915050565b600081519050620004438162000608565b92915050565b6000604082840312156200045c57600080fd5b620004686040620004fa565b905060006200047a84828501620003c1565b600083015250602082015167ffffffffffffffff8111156200049b57600080fd5b620004a984828501620003d8565b60208301525092915050565b600060208284031215620004c857600080fd5b600082015167ffffffffffffffff811115620004e357600080fd5b620004f18482850162000405565b91505092915050565b6000604051905081810181811067ffffffffffffffff82111715620005245762000523620005ec565b5b8060405250919050565b600067ffffffffffffffff8211156200054c576200054b620005ec565b5b602082029050602081019050919050565b600067ffffffffffffffff8211156200057b576200057a620005ec565b5b602082029050602081019050919050565b60006200059982620005cc565b9050919050565b60007fffffffff0000000000000000000000000000000000000000000000000000000082169050919050565b600073ffffffffffffffffffffffffffffffffffffffff82169050919050565bfe5b620005f9816200058c565b81146200060557600080fd5b50565b6200061381620005a0565b81146200061f57600080fd5b50565b610f0180620006326000396000f3fe608060405234801561001057600080fd5b50600436106100885760003560e01c80638da5cb5b1161005b5780638da5cb5b14610115578063ce05bfc714610133578063e97b777714610163578063f2fde38b1461017f57610088565b806313c013681461008d5780631c4c4da3146100be5780635ce2c00a146100ef578063715018a61461010b575b600080fd5b6100a760048036038101906100a29190610cb8565b61019b565b6040516100b5929190610d69565b60405180910390f35b6100d860048036038101906100d39190610c8f565b6101ec565b6040516100e6929190610d92565b60405180910390f35b61010960048036038101906101049190610bf2565b61021d565b005b61011361047b565b005b61011d610601565b60405161012a9190610d4e565b60405180910390f35b61014d60048036038101906101489190610c8f565b61062a565b60405161015a9190610d4e565b60405180910390f35b61017d60048036038101906101789190610c4a565b610714565b005b61019960048036038101906101949190610bc9565b61092d565b005b60036020528060005260406000206000915090508060000160009054906101000a900460ff16908060000160019054906101000a900473ffffffffffffffffffffffffffffffffffffffff16905082565b60026020528060005260406000206000915090508060000160009054906101000a900460ff16908060010154905082565b610225610b38565b73ffffffffffffffffffffffffffffffffffffffff1660008054906101000a900473ffffffffffffffffffffffffffffffffffffffff1673ffffffffffffffffffffffffffffffffffffffff16146102e5576040517f08c379a00000000000000000000000000000000000000000000000000000000081526004018080602001828103825260208152602001807f4f776e61626c653a2063616c6c6572206973206e6f7420746865206f776e657281525060200191505060405180910390fd5b60405180604001604052806001151581526020018473ffffffffffffffffffffffffffffffffffffffff1681525060036000600154815260200190815260200160002060008201518160000160006101000a81548160ff02191690831515021790555060208201518160000160016101000a81548173ffffffffffffffffffffffffffffffffffffffff021916908373ffffffffffffffffffffffffffffffffffffffff16021790555090505060005b82829050811015610465576040518060400160405280600115158152602001600154815250600260008585858181106103ca57fe5b90506020020160208101906103df9190610c8f565b7bffffffffffffffffffffffffffffffffffffffffffffffffffffffff19167bffffffffffffffffffffffffffffffffffffffffffffffffffffffff1916815260200190815260200160002060008201518160000160006101000a81548160ff021916908315150217905550602082015181600101559050508080600101915050610395565b5060018060008282540192505081905550505050565b610483610b38565b73ffffffffffffffffffffffffffffffffffffffff1660008054906101000a900473ffffffffffffffffffffffffffffffffffffffff1673ffffffffffffffffffffffffffffffffffffffff1614610543576040517f08c379a00000000000000000000000000000000000000000000000000000000081526004018080602001828103825260208152602001807f4f776e61626c653a2063616c6c6572206973206e6f7420746865206f776e657281525060200191505060405180910390fd5b600073ffffffffffffffffffffffffffffffffffffffff1660008054906101000a900473ffffffffffffffffffffffffffffffffffffffff1673ffffffffffffffffffffffffffffffffffffffff167f8be0079c531659141344cd1fd0a4f28419497f9722a3daafe3b4186f6b6457e060405160405180910390a360008060006101000a81548173ffffffffffffffffffffffffffffffffffffffff021916908373ffffffffffffffffffffffffffffffffffffffff160217905550565b60008060009054906101000a900473ffffffffffffffffffffffffffffffffffffffff16905090565b60008060026000847bffffffffffffffffffffffffffffffffffffffffffffffffffffffff19167bffffffffffffffffffffffffffffffffffffffffffffffffffffffff1916815260200190815260200160002090508060000160009054906101000a900460ff166106d1576040517f08c379a00000000000000000000000000000000000000000000000000000000081526004016106c890610dbb565b60405180910390fd5b600360008260010154815260200190815260200160002060000160019054906101000a900473ffffffffffffffffffffffffffffffffffffffff16915050919050565b61071c610b38565b73ffffffffffffffffffffffffffffffffffffffff1660008054906101000a900473ffffffffffffffffffffffffffffffffffffffff1673ffffffffffffffffffffffffffffffffffffffff16146107dc576040517f08c379a00000000000000000000000000000000000000000000000000000000081526004018080602001828103825260208152602001807f4f776e61626c653a2063616c6c6572206973206e6f7420746865206f776e657281525060200191505060405180910390fd5b60005b82829050811015610884576000600260008585858181106107fc57fe5b90506020020160208101906108119190610c8f565b7bffffffffffffffffffffffffffffffffffffffffffffffffffffffff19167bffffffffffffffffffffffffffffffffffffffffffffffffffffffff1916815260200190815260200160002060000160006101000a81548160ff02191690831515021790555080806001019150506107df565b50600060036000600260008686600081811061089c57fe5b90506020020160208101906108b19190610c8f565b7bffffffffffffffffffffffffffffffffffffffffffffffffffffffff19167bffffffffffffffffffffffffffffffffffffffffffffffffffffffff1916815260200190815260200160002060010154815260200190815260200160002060000160006101000a81548160ff0219169083151502179055505050565b610935610b38565b73ffffffffffffffffffffffffffffffffffffffff1660008054906101000a900473ffffffffffffffffffffffffffffffffffffffff1673ffffffffffffffffffffffffffffffffffffffff16146109f5576040517f08c379a00000000000000000000000000000000000000000000000000000000081526004018080602001828103825260208152602001807f4f776e61626c653a2063616c6c6572206973206e6f7420746865206f776e657281525060200191505060405180910390fd5b600073ffffffffffffffffffffffffffffffffffffffff168173ffffffffffffffffffffffffffffffffffffffff161415610a7b576040517f08c379a0000000000000000000000000000000000000000000000000000000008152600401808060200182810382526026815260200180610ea66026913960400191505060405180910390fd5b8073ffffffffffffffffffffffffffffffffffffffff1660008054906101000a900473ffffffffffffffffffffffffffffffffffffffff1673ffffffffffffffffffffffffffffffffffffffff167f8be0079c531659141344cd1fd0a4f28419497f9722a3daafe3b4186f6b6457e060405160405180910390a3806000806101000a81548173ffffffffffffffffffffffffffffffffffffffff021916908373ffffffffffffffffffffffffffffffffffffffff16021790555050565b600033905090565b600081359050610b4f81610e60565b92915050565b60008083601f840112610b6757600080fd5b8235905067ffffffffffffffff811115610b8057600080fd5b602083019150836020820283011115610b9857600080fd5b9250929050565b600081359050610bae81610e77565b92915050565b600081359050610bc381610e8e565b92915050565b600060208284031215610bdb57600080fd5b6000610be984828501610b40565b91505092915050565b600080600060408486031215610c0757600080fd5b6000610c1586828701610b40565b935050602084013567ffffffffffffffff811115610c3257600080fd5b610c3e86828701610b55565b92509250509250925092565b60008060208385031215610c5d57600080fd5b600083013567ffffffffffffffff811115610c7757600080fd5b610c8385828601610b55565b92509250509250929050565b600060208284031215610ca157600080fd5b6000610caf84828501610b9f565b91505092915050565b600060208284031215610cca57600080fd5b6000610cd884828501610bb4565b91505092915050565b610cea81610dec565b82525050565b610cf981610dfe565b82525050565b6000610d0c601683610ddb565b91507f4e6f20636f6e74726163742072656769737465726564000000000000000000006000830152602082019050919050565b610d4881610e56565b82525050565b6000602082019050610d636000830184610ce1565b92915050565b6000604082019050610d7e6000830185610cf0565b610d8b6020830184610ce1565b9392505050565b6000604082019050610da76000830185610cf0565b610db46020830184610d3f565b9392505050565b60006020820190508181036000830152610dd481610cff565b9050919050565b600082825260208201905092915050565b6000610df782610e36565b9050919050565b60008115159050919050565b60007fffffffff0000000000000000000000000000000000000000000000000000000082169050919050565b600073ffffffffffffffffffffffffffffffffffffffff82169050919050565b6000819050919050565b610e6981610dec565b8114610e7457600080fd5b50565b610e8081610e0a565b8114610e8b57600080fd5b50565b610e9781610e56565b8114610ea257600080fd5b5056fe4f776e61626c653a206e6577206f776e657220697320746865207a65726f2061646472657373a2646970667358221220d39bcb0232d78ad4f1a59f455eb64ac0c3bb6f64d5bd7537526afb9e9d3deeca64736f6c63430007060033",
  "linkReferences": {},
  "deployedLinkReferences": {}
}