{
  "_format": "hh-sol-artifact-1",
  "contractName": "GitRepositoryManagementUpdated",
  "sourceName": "contracts/facets/GitRepositoryManagementUpdated.sol",
  "abi": [
    {
      "inputs": [],
      "name": "getRepositoryInfo",
      "outputs": [
        {
          "internalType": "address",
          "name": "contractOwner",
          "type": "address"
        },
        {
          "internalType": "contract GitFactory",
          "name": "factory",
          "type": "address"
        },
        {
          "internalType": "string",
          "name": "name",
          "type": "string"
        },
        {
          "internalType": "uint256",
          "name": "userIndex",
          "type": "uint256"
        },
        {
          "internalType": "uint256",
          "name": "repoIndex",
          "type": "uint256"
        },
        {
          "internalType": "uint256",
          "name": "donations",
          "type": "uint256"
        }
      ],
      "stateMutability": "view",
      "type": "function"
    },
    {
      "inputs": [
        {
          "internalType": "uint256",
          "name": "_newUserIndex",
          "type": "uint256"
        }
      ],
      "name": "updateUserIndex",
      "outputs": [],
      "stateMutability": "nonpayable",
      "type": "function"
    }
  ],
  "bytecode": "0x608060405234801561001057600080fd5b506103ab806100206000396000f3fe608060405234801561001057600080fd5b50600436106100365760003560e01c80639ea6036e1461003b578063d035b55914610069575b600080fd5b6100676004803603602081101561005157600080fd5b810190808035906020019092919050505061013b565b005b6100716101fc565b604051808773ffffffffffffffffffffffffffffffffffffffff1681526020018673ffffffffffffffffffffffffffffffffffffffff16815260200180602001858152602001848152602001838152602001828103825286818151815260200191508051906020019080838360005b838110156100fb5780820151818401526020810190506100e0565b50505050905090810190601f1680156101285780820380516001836020036101000a031916815260200191505b5097505050505050505060405180910390f35b600061014561031f565b90508060010160009054906101000a900473ffffffffffffffffffffffffffffffffffffffff1673ffffffffffffffffffffffffffffffffffffffff163373ffffffffffffffffffffffffffffffffffffffff16146101ef576040517f08c379a000000000000000000000000000000000000000000000000000000000815260040180806020018281038252602981526020018061034d6029913960400191505060405180910390fd5b8181600301819055505050565b600080606060008060008061020f61031f565b90508060000160009054906101000a900473ffffffffffffffffffffffffffffffffffffffff168160010160009054906101000a900473ffffffffffffffffffffffffffffffffffffffff1682600201836003015484600401548560050154838054600181600116156101000203166002900480601f0160208091040260200160405190810160405280929190818152602001828054600181600116156101000203166002900480156103035780601f106102d857610100808354040283529160200191610303565b820191906000526020600020905b8154815290600101906020018083116102e657829003601f168201915b5050505050935096509650965096509650965050909192939495565b6000807fcda474466355d557cbe45e4216caf1702767769836ab9be7c9c775dafc95a0b09050809150509056fe596f7520617265206e6f7420616c6c6f776420746f20706572666f726d207468697320616374696f6ea264697066735822122078f6cda5f8b2bf6eee6d9d475306043002d0c9758c0d5eaa2c899f7dcd3e0d3064736f6c63430007060033",
  "linkReferences": {},
  "deployedLinkReferences": {}
}