{
  "_format": "hh-sol-artifact-1",
  "contractName": "RepositoryManagement",
  "sourceName": "contracts/factory_facets/RepositoryManagement.sol",
  "abi": [
    {
      "anonymous": false,
      "inputs": [
        {
          "indexed": false,
          "internalType": "string",
          "name": "name",
          "type": "string"
        },
        {
          "indexed": false,
          "internalType": "address",
          "name": "user",
          "type": "address"
        }
      ],
      "name": "NewRepositoryCreated",
      "type": "event"
    },
    {
      "inputs": [
        {
          "internalType": "string",
          "name": "_repoName",
          "type": "string"
        }
      ],
      "name": "createRepository",
      "outputs": [],
      "stateMutability": "nonpayable",
      "type": "function"
    },
    {
      "inputs": [
        {
          "internalType": "bytes32",
          "name": "location",
          "type": "bytes32"
        }
      ],
      "name": "forkRepository",
      "outputs": [],
      "stateMutability": "nonpayable",
      "type": "function"
    },
    {
      "inputs": [
        {
          "internalType": "string",
          "name": "_repoName",
          "type": "string"
        }
      ],
      "name": "getRepositoriesUserList",
      "outputs": [
        {
          "internalType": "address[]",
          "name": "",
          "type": "address[]"
        }
      ],
      "stateMutability": "view",
      "type": "function"
    },
    {
      "inputs": [
        {
          "internalType": "bytes32",
          "name": "location",
          "type": "bytes32"
        }
      ],
      "name": "getRepository",
      "outputs": [
        {
          "components": [
            {
              "internalType": "bool",
              "name": "isActive",
              "type": "bool"
            },
            {
              "internalType": "string",
              "name": "name",
              "type": "string"
            },
            {
              "internalType": "contract GitRepository",
              "name": "location",
              "type": "address"
            }
          ],
          "internalType": "struct LibGitFactory.Repository",
          "name": "",
          "type": "tuple"
        }
      ],
      "stateMutability": "view",
      "type": "function"
    },
    {
      "inputs": [],
      "name": "getRepositoryNames",
      "outputs": [
        {
          "internalType": "string[]",
          "name": "",
          "type": "string[]"
        }
      ],
      "stateMutability": "view",
      "type": "function"
    },
    {
      "inputs": [
        {
          "internalType": "address",
          "name": "_owner",
          "type": "address"
        },
        {
          "internalType": "string",
          "name": "_repoName",
          "type": "string"
        }
      ],
      "name": "getUserRepoNameHash",
      "outputs": [
        {
          "internalType": "bytes32",
          "name": "",
          "type": "bytes32"
        }
      ],
      "stateMutability": "pure",
      "type": "function"
    },
    {
      "inputs": [
        {
          "internalType": "address",
          "name": "_owner",
          "type": "address"
        }
      ],
      "name": "getUsersRepositories",
      "outputs": [
        {
          "internalType": "string[]",
          "name": "",
          "type": "string[]"
        }
      ],
      "stateMutability": "view",
      "type": "function"
    },
    {
      "inputs": [
        {
          "internalType": "string",
          "name": "repoName",
          "type": "string"
        },
        {
          "internalType": "uint256",
          "name": "userIndex",
          "type": "uint256"
        },
        {
          "internalType": "uint256",
          "name": "repoIndex",
          "type": "uint256"
        }
      ],
      "name": "removeRepository",
      "outputs": [],
      "stateMutability": "nonpayable",
      "type": "function"
    }
  ],
  "bytecode": "0x608060405234801561001057600080fd5b50613ab5806100206000396000f3fe60806040523480156200001157600080fd5b5060043610620000945760003560e01c806390f24d73116200006357806390f24d731462000147578063a97aafdd146200017d578063b67766a914620001b3578063ee94cf6d14620001d35762000094565b80633796a4c914620000995780634da07e9a14620000b9578063719a629814620000ef5780637e1ed27d1462000111575b600080fd5b620000b76004803603810190620000b19190620020da565b620001f3565b005b620000d76004803603810190620000d1919062002095565b62000cfc565b604051620000e69190620027dd565b60405180910390f35b620000f962000dbd565b60405162000108919062002801565b60405180910390f35b6200012f60048036038101906200012991906200200f565b62000ebd565b6040516200013e919062002825565b60405180910390f35b6200016560048036038101906200015f919062002069565b62000ef2565b6040516200017491906200299a565b60405180910390f35b6200019b600480360381019062000195919062001f07565b62001049565b604051620001aa919062002801565b60405180910390f35b620001d16004803603810190620001cb919062002069565b62001188565b005b620001f16004803603810190620001eb919062002095565b6200174b565b005b600062000201338562000ebd565b905060006200020f6200193e565b905080600001600083815260200190815260200160002060000160009054906101000a900460ff1662000279576040517f08c379a0000000000000000000000000000000000000000000000000000000008152600401620002709062002910565b60405180910390fd5b600081600001600084815260200190815260200160002060020160009054906101000a900473ffffffffffffffffffffffffffffffffffffffff1690506000808273ffffffffffffffffffffffffffffffffffffffff1663d035b5596040518163ffffffff1660e01b815260040160006040518083038186803b1580156200030057600080fd5b505afa15801562000315573d6000803e3d6000fd5b505050506040513d6000823e3d601f19601f8201168201806040525081019062000340919062001f33565b9091929394959650909192939495509091929394509091509050508092508193505050818714620003a8576040517f08c379a00000000000000000000000000000000000000000000000000000000081526004016200039f90620028aa565b60405180910390fd5b808614620003ed576040517f08c379a0000000000000000000000000000000000000000000000000000000008152600401620003e49062002932565b60405180910390fd5b6000846001018960405162000403919062002777565b9081526020016040518091039020805490509050806001890114156200048a57846001018960405162000437919062002777565b90815260200160405180910390208054806200044f57fe5b6001900381819060005260206000200160006101000a81549073ffffffffffffffffffffffffffffffffffffffff02191690559055620006dd565b84600101896040516200049e919062002777565b90815260200160405180910390208881548110620004b857fe5b9060005260206000200160006101000a81549073ffffffffffffffffffffffffffffffffffffffff02191690556000856001018a604051620004fb919062002777565b908152602001604051809103902060018303815481106200051857fe5b9060005260206000200160009054906101000a900473ffffffffffffffffffffffffffffffffffffffff169050856001018a60405162000559919062002777565b90815260200160405180910390208054806200057157fe5b6001900381819060005260206000200160006101000a81549073ffffffffffffffffffffffffffffffffffffffff0219169055905580866001018b604051620005bb919062002777565b90815260200160405180910390208a81548110620005d557fe5b9060005260206000200160006101000a81548173ffffffffffffffffffffffffffffffffffffffff021916908373ffffffffffffffffffffffffffffffffffffffff16021790555060006200062b828c62000ebd565b9050600087600001600083815260200190815260200160002060020160009054906101000a900473ffffffffffffffffffffffffffffffffffffffff1690508073ffffffffffffffffffffffffffffffffffffffff16639ea6036e8c6040518263ffffffff1660e01b8152600401620006a59190620029be565b600060405180830381600087803b158015620006c057600080fd5b505af1158015620006d5573d6000803e3d6000fd5b505050505050505b60008560020160003373ffffffffffffffffffffffffffffffffffffffff1673ffffffffffffffffffffffffffffffffffffffff16815260200190815260200160002080549050905080600189011415620007a3578560020160003373ffffffffffffffffffffffffffffffffffffffff1673ffffffffffffffffffffffffffffffffffffffff1681526020019081526020016000208054806200077d57fe5b6001900381819060005260206000200160006200079b919062001c39565b905562000a9c565b8560020160003373ffffffffffffffffffffffffffffffffffffffff1673ffffffffffffffffffffffffffffffffffffffff1681526020019081526020016000208881548110620007f057fe5b90600052602060002001600062000808919062001c39565b60008660020160003373ffffffffffffffffffffffffffffffffffffffff1673ffffffffffffffffffffffffffffffffffffffff16815260200190815260200160002060018303815481106200085a57fe5b906000526020600020018054600181600116156101000203166002900480601f016020809104026020016040519081016040528092919081815260200182805460018160011615610100020316600290048015620008fc5780601f10620008d057610100808354040283529160200191620008fc565b820191906000526020600020905b815481529060010190602001808311620008de57829003601f168201915b505050505090508660020160003373ffffffffffffffffffffffffffffffffffffffff1673ffffffffffffffffffffffffffffffffffffffff1681526020019081526020016000208054806200094e57fe5b6001900381819060005260206000200160006200096c919062001c39565b9055808760020160003373ffffffffffffffffffffffffffffffffffffffff1673ffffffffffffffffffffffffffffffffffffffff1681526020019081526020016000208a81548110620009bc57fe5b906000526020600020019080519060200190620009db92919062001c85565b506000620009ea338362000ebd565b9050600088600001600083815260200190815260200160002060020160009054906101000a900473ffffffffffffffffffffffffffffffffffffffff1690508073ffffffffffffffffffffffffffffffffffffffff1663708da6f48c6040518263ffffffff1660e01b815260040162000a649190620029be565b600060405180830381600087803b15801562000a7f57600080fd5b505af115801562000a94573d6000803e3d6000fd5b505050505050505b6000866001018b60405162000ab2919062002777565b908152602001604051809103902080549050141562000cbf576000866004018b60405162000ae1919062002777565b908152602001604051809103902060000160006101000a81548160ff0219169083151502179055506000866004018b60405162000b1f919062002777565b90815260200160405180910390206001015490506001876003018054905003811462000c8f5786600301818154811062000b5557fe5b90600052602060002001600062000b6d919062001c39565b60008760030160018960030180549050038154811062000b8957fe5b906000526020600020018054600181600116156101000203166002900480601f01602080910402602001604051908101604052809291908181526020018280546001816001161561010002031660029004801562000c2b5780601f1062000bff5761010080835404028352916020019162000c2b565b820191906000526020600020905b81548152906001019060200180831162000c0d57829003601f168201915b505050505090508088600301838154811062000c4357fe5b90600052602060002001908051906020019062000c6292919062001c85565b5081886004018260405162000c78919062002777565b908152602001604051809103902060010181905550505b8660030180548062000c9d57fe5b60019003818190600052602060002001600062000cbb919062001c39565b9055505b600086600001600089815260200190815260200160002060000160006101000a81548160ff02191690831515021790555050505050505050505050565b6060600062000d0a6200193e565b9050806001018360405162000d20919062002777565b908152602001604051809103902080548060200260200160405190810160405280929190818152602001828054801562000db057602002820191906000526020600020905b8160009054906101000a900473ffffffffffffffffffffffffffffffffffffffff1673ffffffffffffffffffffffffffffffffffffffff168152602001906001019080831162000d65575b5050505050915050919050565b6060600062000dcb6200193e565b905080600301805480602002602001604051908101604052809291908181526020016000905b8282101562000eb3578382906000526020600020018054600181600116156101000203166002900480601f01602080910402602001604051908101604052809291908181526020018280546001816001161561010002031660029004801562000e9e5780601f1062000e725761010080835404028352916020019162000e9e565b820191906000526020600020905b81548152906001019060200180831162000e8057829003601f168201915b50505050508152602001906001019062000df1565b5050505091505090565b6000828260405160200162000ed4929190620027a9565b60405160208183030381529060405280519060200120905092915050565b62000efc62001d1c565b600062000f086200193e565b90508060000160008481526020019081526020016000206040518060600160405290816000820160009054906101000a900460ff16151515158152602001600182018054600181600116156101000203166002900480601f01602080910402602001604051908101604052809291908181526020018280546001816001161561010002031660029004801562000fe25780601f1062000fb65761010080835404028352916020019162000fe2565b820191906000526020600020905b81548152906001019060200180831162000fc457829003601f168201915b505050505081526020016002820160009054906101000a900473ffffffffffffffffffffffffffffffffffffffff1673ffffffffffffffffffffffffffffffffffffffff1673ffffffffffffffffffffffffffffffffffffffff1681525050915050919050565b60606000620010576200193e565b90508060020160008473ffffffffffffffffffffffffffffffffffffffff1673ffffffffffffffffffffffffffffffffffffffff168152602001908152602001600020805480602002602001604051908101604052809291908181526020016000905b828210156200117c578382906000526020600020018054600181600116156101000203166002900480601f016020809104026020016040519081016040528092919081815260200182805460018160011615610100020316600290048015620011675780601f106200113b5761010080835404028352916020019162001167565b820191906000526020600020905b8154815290600101906020018083116200114957829003601f168201915b505050505081526020019060010190620010ba565b50505050915050919050565b6000620011946200193e565b9050600081600001600084815260200190815260200160002090508060000160009054906101000a900460ff1662001203576040517f08c379a0000000000000000000000000000000000000000000000000000000008152600401620011fa9062002954565b60405180910390fd5b600082600001600085815260200190815260200160002060020160009054906101000a900473ffffffffffffffffffffffffffffffffffffffff16905060008173ffffffffffffffffffffffffffffffffffffffff1663d035b5596040518163ffffffff1660e01b815260040160006040518083038186803b1580156200128957600080fd5b505afa1580156200129e573d6000803e3d6000fd5b505050506040513d6000823e3d601f19601f82011682018060405250810190620012c9919062001f33565b90919293949550909192939450909192935090919250909150905050809150503373ffffffffffffffffffffffffffffffffffffffff168173ffffffffffffffffffffffffffffffffffffffff1614156200135b576040517f08c379a00000000000000000000000000000000000000000000000000000000081526004016200135290620028cc565b60405180910390fd5b60006040518060e001604052803373ffffffffffffffffffffffffffffffffffffffff1681526020013073ffffffffffffffffffffffffffffffffffffffff168152602001856001018054600181600116156101000203166002900480601f0160208091040260200160405190810160405280929190818152602001828054600181600116156101000203166002900480156200143c5780601f1062001410576101008083540402835291602001916200143c565b820191906000526020600020905b8154815290600101906020018083116200141e57829003601f168201915b5050505050815260200186600101866001016040516200145d919062002790565b90815260200160405180910390208054905081526020018660020160003373ffffffffffffffffffffffffffffffffffffffff1673ffffffffffffffffffffffffffffffffffffffff1681526020019081526020016000208054905081526020016001151581526020018560020160009054906101000a900473ffffffffffffffffffffffffffffffffffffffff1673ffffffffffffffffffffffffffffffffffffffff16815250604051620015139062001d55565b6200151f919062002976565b604051809103906000f0801580156200153c573d6000803e3d6000fd5b50905060008190508073ffffffffffffffffffffffffffffffffffffffff16639afb03426040518163ffffffff1660e01b8152600401600060405180830381600087803b1580156200158d57600080fd5b505af1158015620015a2573d6000803e3d6000fd5b5050505060006200165433876001018054600181600116156101000203166002900480601f016020809104026020016040519081016040528092919081815260200182805460018160011615610100020316600290048015620016495780601f106200161d5761010080835404028352916020019162001649565b820191906000526020600020905b8154815290600101906020018083116200162b57829003601f168201915b505050505062000ebd565b90506200170381876001018054600181600116156101000203166002900480601f016020809104026020016040519081016040528092919081815260200182805460018160011615610100020316600290048015620016f75780601f10620016cb57610100808354040283529160200191620016f7565b820191906000526020600020905b815481529060010190602001808311620016d957829003601f168201915b5050505050856200196b565b7f3d8c7158d758ddccd015fb747eefe6899ac419d5426accaa4e7e0ac4cde21ed586600101336040516200173992919062002876565b60405180910390a15050505050505050565b600062001759338362000ebd565b90506000620017676200193e565b905080600001600083815260200190815260200160002060000160009054906101000a900460ff1615620017d2576040517f08c379a0000000000000000000000000000000000000000000000000000000008152600401620017c990620028ee565b60405180910390fd5b60006040518060e001604052803373ffffffffffffffffffffffffffffffffffffffff1681526020013073ffffffffffffffffffffffffffffffffffffffff168152602001858152602001836001018660405162001831919062002777565b90815260200160405180910390208054905081526020018360020160003373ffffffffffffffffffffffffffffffffffffffff1673ffffffffffffffffffffffffffffffffffffffff168152602001908152602001600020805490508152602001600015158152602001600073ffffffffffffffffffffffffffffffffffffffff16815250604051620018c49062001d55565b620018d0919062002976565b604051809103906000f080158015620018ed573d6000803e3d6000fd5b509050620018fd8385836200196b565b7f3d8c7158d758ddccd015fb747eefe6899ac419d5426accaa4e7e0ac4cde21ed584336040516200193092919062002842565b60405180910390a150505050565b6000807f3e840ec856264e5b195164c26ee063fa05c7020db20fcd61d7b0d916a65a112f90508091505090565b6000620019776200193e565b905060405180606001604052806001151581526020018481526020018373ffffffffffffffffffffffffffffffffffffffff1681525081600001600086815260200190815260200160002060008201518160000160006101000a81548160ff021916908315150217905550602082015181600101908051906020019062001a0092919062001c85565b5060408201518160020160006101000a81548173ffffffffffffffffffffffffffffffffffffffff021916908373ffffffffffffffffffffffffffffffffffffffff160217905550905050806001018360405162001a5f919062002777565b9081526020016040518091039020339080600181540180825580915050600190039060005260206000200160009091909190916101000a81548173ffffffffffffffffffffffffffffffffffffffff021916908373ffffffffffffffffffffffffffffffffffffffff1602179055508060020160003373ffffffffffffffffffffffffffffffffffffffff1673ffffffffffffffffffffffffffffffffffffffff1681526020019081526020016000208390806001815401808255809150506001900390600052602060002001600090919091909150908051906020019062001b4a92919062001c85565b50806004018360405162001b5f919062002777565b908152602001604051809103902060000160009054906101000a900460ff1662001c33576001816004018460405162001b99919062002777565b908152602001604051809103902060000160006101000a81548160ff0219169083151502179055508060030180549050816004018460405162001bdd919062002777565b908152602001604051809103902060010181905550806003018390806001815401808255809150506001900390600052602060002001600090919091909150908051906020019062001c3192919062001c85565b505b50505050565b50805460018160011615610100020316600290046000825580601f1062001c61575062001c82565b601f01602090049060005260206000209081019062001c81919062001d63565b5b50565b828054600181600116156101000203166002900490600052602060002090601f01602090048101928262001cbd576000855562001d09565b82601f1062001cd857805160ff191683800117855562001d09565b8280016001018555821562001d09579182015b8281111562001d0857825182559160200191906001019062001ceb565b5b50905062001d18919062001d63565b5090565b604051806060016040528060001515815260200160608152602001600073ffffffffffffffffffffffffffffffffffffffff1681525090565b610d9c8062002ce483390190565b5b8082111562001d7e57600081600090555060010162001d64565b5090565b600062001d9962001d938462002a0f565b620029db565b90508281526020810184848401111562001db257600080fd5b62001dbf84828562002c09565b509392505050565b600062001dde62001dd88462002a0f565b620029db565b90508281526020810184848401111562001df757600080fd5b62001e0484828562002c18565b509392505050565b60008135905062001e1d8162002c61565b92915050565b60008151905062001e348162002c61565b92915050565b60008151905062001e4b8162002c7b565b92915050565b60008135905062001e628162002c95565b92915050565b60008151905062001e798162002caf565b92915050565b600082601f83011262001e9157600080fd5b813562001ea384826020860162001d82565b91505092915050565b600082601f83011262001ebe57600080fd5b815162001ed084826020860162001dc7565b91505092915050565b60008135905062001eea8162002cc9565b92915050565b60008151905062001f018162002cc9565b92915050565b60006020828403121562001f1a57600080fd5b600062001f2a8482850162001e0c565b91505092915050565b600080600080600080600080610100898b03121562001f5157600080fd5b600062001f618b828c0162001e23565b985050602062001f748b828c0162001e68565b975050604089015167ffffffffffffffff81111562001f9257600080fd5b62001fa08b828c0162001eac565b965050606062001fb38b828c0162001ef0565b955050608062001fc68b828c0162001ef0565b94505060a062001fd98b828c0162001ef0565b93505060c062001fec8b828c0162001e3a565b92505060e062001fff8b828c0162001e23565b9150509295985092959890939650565b600080604083850312156200202357600080fd5b6000620020338582860162001e0c565b925050602083013567ffffffffffffffff8111156200205157600080fd5b6200205f8582860162001e7f565b9150509250929050565b6000602082840312156200207c57600080fd5b60006200208c8482850162001e51565b91505092915050565b600060208284031215620020a857600080fd5b600082013567ffffffffffffffff811115620020c357600080fd5b620020d18482850162001e7f565b91505092915050565b600080600060608486031215620020f057600080fd5b600084013567ffffffffffffffff8111156200210b57600080fd5b620021198682870162001e7f565b93505060206200212c8682870162001ed9565b92505060406200213f8682870162001ed9565b9150509250925092565b60006200215783836200218a565b60208301905092915050565b6000620021718383620022db565b905092915050565b620021848162002b7d565b82525050565b620021958162002b01565b82525050565b620021a68162002b01565b82525050565b6000620021b98262002a77565b620021c5818562002ab2565b9350620021d28362002a42565b8060005b8381101562002209578151620021ed888262002149565b9750620021fa8362002a98565b925050600181019050620021d6565b5085935050505092915050565b6000620022238262002a82565b6200222f818562002ac3565b935083602082028501620022438562002a52565b8060005b8581101562002285578484038952815162002263858262002163565b9450620022708362002aa5565b925060208a0199505060018101905062002247565b50829750879550505050505092915050565b620022a28162002b29565b82525050565b620022b38162002b35565b82525050565b620022c48162002b91565b82525050565b620022d58162002bb9565b82525050565b6000620022e88262002a8d565b620022f4818562002ad4565b93506200230681856020860162002c18565b620023118162002c50565b840191505092915050565b6000620023298262002a8d565b62002335818562002ae5565b93506200234781856020860162002c18565b620023528162002c50565b840191505092915050565b60006200236a8262002a8d565b62002376818562002af6565b93506200238881856020860162002c18565b80840191505092915050565b600081546001811660008114620023b45760018114620023dd5762002427565b607f6002830416620023c7818762002ae5565b955060ff19831686526020860193505062002427565b60028204620023ed818762002ae5565b9550620023fa8562002a62565b60005b828110156200241e57815481890152600182019150602081019050620023fd565b80880195505050505b505092915050565b6000815460018116600081146200244f57600181146200247757620024c1565b607f600283041662002462818762002af6565b955060ff1983168652808601935050620024c1565b6002820462002487818762002af6565b9550620024948562002a62565b60005b82811015620024b85781548189015260018201915060208101905062002497565b82880195505050505b505092915050565b6000620024d8601c8362002ae5565b91507f5573657220496e6465782076616c7565206e6f7420636f7272656374000000006000830152602082019050919050565b60006200251a601c8362002ae5565b91507f466f726b20696d706f737369626c652e205265706f20657869737473000000006000830152602082019050919050565b60006200255c600b8362002ae5565b91507f5265706f206578697374730000000000000000000000000000000000000000006000830152602082019050919050565b60006200259e60128362002ae5565b91507f5265706f20646f65736e277420657869737400000000000000000000000000006000830152602082019050919050565b6000620025e0601c8362002ae5565b91507f5265706f20496e6465782076616c7565206e6f7420636f7272656374000000006000830152602082019050919050565b600062002622600c8362002ae5565b91507f4e6f2073756368207265706f00000000000000000000000000000000000000006000830152602082019050919050565b600060e0830160008301516200266f60008601826200218a565b506020830151620026846020860182620022b9565b50604083015184820360408601526200269e8282620022db565b9150506060830151620026b5606086018262002755565b506080830151620026ca608086018262002755565b5060a0830151620026df60a086018262002297565b5060c0830151620026f460c08601826200218a565b508091505092915050565b600060608301600083015162002719600086018262002297565b5060208301518482036020860152620027338282620022db565b91505060408301516200274a6040860182620022ca565b508091505092915050565b620027608162002b73565b82525050565b620027718162002b73565b82525050565b60006200278582846200235d565b915081905092915050565b60006200279e82846200242f565b915081905092915050565b6000604082019050620027c060008301856200219b565b8181036020830152620027d481846200231c565b90509392505050565b60006020820190508181036000830152620027f98184620021ac565b905092915050565b600060208201905081810360008301526200281d818462002216565b905092915050565b60006020820190506200283c6000830184620022a8565b92915050565b600060408201905081810360008301526200285e81856200231c565b90506200286f602083018462002179565b9392505050565b6000604082019050818103600083015262002892818562002394565b9050620028a3602083018462002179565b9392505050565b60006020820190508181036000830152620028c581620024c9565b9050919050565b60006020820190508181036000830152620028e7816200250b565b9050919050565b6000602082019050818103600083015262002909816200254d565b9050919050565b600060208201905081810360008301526200292b816200258f565b9050919050565b600060208201905081810360008301526200294d81620025d1565b9050919050565b600060208201905081810360008301526200296f8162002613565b9050919050565b6000602082019050818103600083015262002992818462002655565b905092915050565b60006020820190508181036000830152620029b68184620026ff565b905092915050565b6000602082019050620029d5600083018462002766565b92915050565b6000604051905081810181811067ffffffffffffffff8211171562002a055762002a0462002c4e565b5b8060405250919050565b600067ffffffffffffffff82111562002a2d5762002a2c62002c4e565b5b601f19601f8301169050602081019050919050565b6000819050602082019050919050565b6000819050602082019050919050565b60008190508160005260206000209050919050565b600081519050919050565b600081519050919050565b600081519050919050565b6000602082019050919050565b6000602082019050919050565b600082825260208201905092915050565b600082825260208201905092915050565b600082825260208201905092915050565b600082825260208201905092915050565b600081905092915050565b600062002b0e8262002b53565b9050919050565b600062002b228262002b53565b9050919050565b60008115159050919050565b6000819050919050565b600062002b4c8262002b15565b9050919050565b600073ffffffffffffffffffffffffffffffffffffffff82169050919050565b6000819050919050565b600062002b8a8262002be1565b9050919050565b600062002b9e8262002ba5565b9050919050565b600062002bb28262002b53565b9050919050565b600062002bc68262002bcd565b9050919050565b600062002bda8262002b53565b9050919050565b600062002bee8262002bf5565b9050919050565b600062002c028262002b53565b9050919050565b82818337600083830152505050565b60005b8381101562002c3857808201518184015260208101905062002c1b565b8381111562002c48576000848401525b50505050565bfe5b6000601f19601f8301169050919050565b62002c6c8162002b01565b811462002c7857600080fd5b50565b62002c868162002b29565b811462002c9257600080fd5b50565b62002ca08162002b35565b811462002cac57600080fd5b50565b62002cba8162002b3f565b811462002cc657600080fd5b50565b62002cd48162002b73565b811462002ce057600080fd5b5056fe608060405260405162000d9c38038062000d9c8339818101604052810190620000299190620004d3565b62000061816020015182604001518360600151846080015185600001518660a001518760c001516200006860201b620002681760201c565b5062000691565b60006200007a6200024860201b60201c565b9050878160010160006101000a81548173ffffffffffffffffffffffffffffffffffffffff021916908373ffffffffffffffffffffffffffffffffffffffff16021790555086816002019080519060200190620000d992919062000275565b5085816003018190555084816004018190555060008160000160009054906101000a900473ffffffffffffffffffffffffffffffffffffffff169050848260000160006101000a81548173ffffffffffffffffffffffffffffffffffffffff021916908373ffffffffffffffffffffffffffffffffffffffff160217905550838260060160006101000a81548160ff021916908315150217905550828260060160016101000a81548173ffffffffffffffffffffffffffffffffffffffff021916908373ffffffffffffffffffffffffffffffffffffffff16021790555083620001c5576001620001c8565b60005b8260060160156101000a81548160ff0219169083151502179055508473ffffffffffffffffffffffffffffffffffffffff168173ffffffffffffffffffffffffffffffffffffffff167f8be0079c531659141344cd1fd0a4f28419497f9722a3daafe3b4186f6b6457e060405160405180910390a3505050505050505050565b6000807fcda474466355d557cbe45e4216caf1702767769836ab9be7c9c775dafc95a0b090508091505090565b828054600181600116156101000203166002900490600052602060002090601f016020900481019282620002ad5760008555620002f9565b82601f10620002c857805160ff1916838001178555620002f9565b82800160010185558215620002f9579182015b82811115620002f8578251825591602001919060010190620002db565b5b5090506200030891906200030c565b5090565b5b80821115620003275760008160009055506001016200030d565b5090565b6000620003426200033c846200054c565b62000518565b9050828152602081018484840111156200035b57600080fd5b62000368848285620005f1565b509392505050565b600081519050620003818162000629565b92915050565b600081519050620003988162000643565b92915050565b600081519050620003af816200065d565b92915050565b600082601f830112620003c757600080fd5b8151620003d98482602086016200032b565b91505092915050565b600060e08284031215620003f557600080fd5b6200040160e062000518565b90506000620004138482850162000370565b600083015250602062000429848285016200039e565b602083015250604082015167ffffffffffffffff8111156200044a57600080fd5b6200045884828501620003b5565b60408301525060606200046e84828501620004bc565b60608301525060806200048484828501620004bc565b60808301525060a06200049a8482850162000387565b60a08301525060c0620004b08482850162000370565b60c08301525092915050565b600081519050620004cd8162000677565b92915050565b600060208284031215620004e657600080fd5b600082015167ffffffffffffffff8111156200050157600080fd5b6200050f84828501620003e2565b91505092915050565b6000604051905081810181811067ffffffffffffffff8211171562000542576200054162000627565b5b8060405250919050565b600067ffffffffffffffff8211156200056a576200056962000627565b5b601f19601f8301169050602081019050919050565b60006200058c82620005c7565b9050919050565b6000620005a082620005c7565b9050919050565b60008115159050919050565b6000620005c08262000593565b9050919050565b600073ffffffffffffffffffffffffffffffffffffffff82169050919050565b6000819050919050565b60005b8381101562000611578082015181840152602081019050620005f4565b8381111562000621576000848401525b50505050565bfe5b62000634816200057f565b81146200064057600080fd5b50565b6200064e81620005a7565b81146200065a57600080fd5b50565b6200066881620005b3565b81146200067457600080fd5b50565b6200068281620005e7565b81146200068e57600080fd5b50565b6106fb80620006a16000396000f3fe60806040523661002a57600061001361023b565b905034816005016000828254019250508190555050005b600061003461023b565b905060008160010160009054906101000a900473ffffffffffffffffffffffffffffffffffffffff16905060008173ffffffffffffffffffffffffffffffffffffffff16633caf0f1a6040518163ffffffff1660e01b815260040160206040518083038186803b1580156100a757600080fd5b505afa1580156100bb573d6000803e3d6000fd5b505050506040513d601f19601f820116820180604052508101906100df919061053a565b905060008173ffffffffffffffffffffffffffffffffffffffff1663b11b9f436000357fffffffff00000000000000000000000000000000000000000000000000000000168660060160009054906101000a900460ff166040518363ffffffff1660e01b81526004016101539291906105c1565b60206040518083038186803b15801561016b57600080fd5b505afa15801561017f573d6000803e3d6000fd5b505050506040513d601f19601f820116820180604052508101906101a39190610511565b9050600073ffffffffffffffffffffffffffffffffffffffff168173ffffffffffffffffffffffffffffffffffffffff161415610215576040517f08c379a000000000000000000000000000000000000000000000000000000000815260040161020c906105ea565b60405180910390fd5b3660008037600080366000845af43d6000803e8060008114610236573d6000f35b3d6000fd5b6000807fcda474466355d557cbe45e4216caf1702767769836ab9be7c9c775dafc95a0b090508091505090565b600061027261023b565b9050878160010160006101000a81548173ffffffffffffffffffffffffffffffffffffffff021916908373ffffffffffffffffffffffffffffffffffffffff160217905550868160020190805190602001906102cf92919061043c565b5085816003018190555084816004018190555060008160000160009054906101000a900473ffffffffffffffffffffffffffffffffffffffff169050848260000160006101000a81548173ffffffffffffffffffffffffffffffffffffffff021916908373ffffffffffffffffffffffffffffffffffffffff160217905550838260060160006101000a81548160ff021916908315150217905550828260060160016101000a81548173ffffffffffffffffffffffffffffffffffffffff021916908373ffffffffffffffffffffffffffffffffffffffff160217905550836103b95760016103bc565b60005b8260060160156101000a81548160ff0219169083151502179055508473ffffffffffffffffffffffffffffffffffffffff168173ffffffffffffffffffffffffffffffffffffffff167f8be0079c531659141344cd1fd0a4f28419497f9722a3daafe3b4186f6b6457e060405160405180910390a3505050505050505050565b828054600181600116156101000203166002900490600052602060002090601f01602090048101928261047257600085556104b9565b82601f1061048b57805160ff19168380011785556104b9565b828001600101855582156104b9579182015b828111156104b857825182559160200191906001019061049d565b5b5090506104c691906104ca565b5090565b5b808211156104e35760008160009055506001016104cb565b5090565b6000815190506104f681610697565b92915050565b60008151905061050b816106ae565b92915050565b60006020828403121561052357600080fd5b6000610531848285016104e7565b91505092915050565b60006020828403121561054c57600080fd5b600061055a848285016104fc565b91505092915050565b61056c8161062d565b82525050565b61057b81610639565b82525050565b600061058e60208361060a565b91507f4469616d6f6e643a2046756e6374696f6e20646f6573206e6f742065786973746000830152602082019050919050565b60006040820190506105d66000830185610572565b6105e36020830184610563565b9392505050565b6000602082019050818103600083015261060381610581565b9050919050565b600082825260208201905092915050565b600061062682610677565b9050919050565b60008115159050919050565b60007fffffffff0000000000000000000000000000000000000000000000000000000082169050919050565b60006106708261061b565b9050919050565b600073ffffffffffffffffffffffffffffffffffffffff82169050919050565b6106a08161061b565b81146106ab57600080fd5b50565b6106b781610665565b81146106c257600080fd5b5056fea2646970667358221220d524949d973e8161dd35e9080bb91d0201c715c0bc99d6618fb761fa4f41c4d264736f6c63430007060033a264697066735822122014e869e5e9fe79794ab9c206b2bc2bdb39f67eb047e915f17b129f8d0fb1f5ab64736f6c63430007060033",
  "linkReferences": {},
  "deployedLinkReferences": {}
}