{
  "_format": "hh-sol-artifact-1",
  "contractName": "GitBranch",
  "sourceName": "contracts/facets/GitBranch.sol",
  "abi": [
    {
      "anonymous": false,
      "inputs": [
        {
          "indexed": false,
          "internalType": "string",
          "name": "branch",
          "type": "string"
        },
        {
          "indexed": false,
          "internalType": "string",
          "name": "Cid",
          "type": "string"
        }
      ],
      "name": "NewPush",
      "type": "event"
    },
    {
      "inputs": [
        {
          "internalType": "string",
          "name": "branchName",
          "type": "string"
        }
      ],
      "name": "getBranch",
      "outputs": [
        {
          "components": [
            {
              "internalType": "bool",
              "name": "isActive",
              "type": "bool"
            },
            {
              "internalType": "string",
              "name": "headCid",
              "type": "string"
            }
          ],
          "internalType": "struct GitBranch.Branch",
          "name": "",
          "type": "tuple"
        }
      ],
      "stateMutability": "view",
      "type": "function"
    },
    {
      "inputs": [],
      "name": "getBranchNames",
      "outputs": [
        {
          "internalType": "string[]",
          "name": "",
          "type": "string[]"
        }
      ],
      "stateMutability": "view",
      "type": "function"
    },
    {
      "inputs": [
        {
          "internalType": "string",
          "name": "branch",
          "type": "string"
        },
        {
          "internalType": "string",
          "name": "newCid",
          "type": "string"
        }
      ],
      "name": "push",
      "outputs": [],
      "stateMutability": "nonpayable",
      "type": "function"
    }
  ],
  "bytecode": "0x608060405234801561001057600080fd5b50610cc5806100206000396000f3fe608060405234801561001057600080fd5b50600436106100415760003560e01c806345460ce914610046578063aa7ee23b14610076578063f876137614610094575b600080fd5b610060600480360381019061005b919061071d565b6100b0565b60405161006d9190610b3a565b60405180910390f35b61007e6101b7565b60405161008b9190610a81565b60405180910390f35b6100ae60048036038101906100a99190610762565b6102af565b005b6100b86105a4565b60006100c261054a565b90508060000184846040516100d8929190610a51565b90815260200160405180910390206040518060400160405290816000820160009054906101000a900460ff16151515158152602001600182018054600181600116156101000203166002900480601f0160208091040260200160405190810160405280929190818152602001828054600181600116156101000203166002900480156101a55780601f1061017a576101008083540402835291602001916101a5565b820191906000526020600020905b81548152906001019060200180831161018857829003601f168201915b50505050508152505091505092915050565b606060006101c361054a565b905080600101805480602002602001604051908101604052809291908181526020016000905b828210156102a5578382906000526020600020018054600181600116156101000203166002900480601f0160208091040260200160405190810160405280929190818152602001828054600181600116156101000203166002900480156102915780601f1061026657610100808354040283529160200191610291565b820191906000526020600020905b81548152906001019060200180831161027457829003601f168201915b5050505050815260200190600101906101e9565b5050505091505090565b60008251116102f3576040517f08c379a00000000000000000000000000000000000000000000000000000000081526004016102ea90610b1a565b60405180910390fd5b6000815111610337576040517f08c379a000000000000000000000000000000000000000000000000000000000815260040161032e90610afa565b60405180910390fd5b6000610341610577565b90503373ffffffffffffffffffffffffffffffffffffffff168160000160009054906101000a900473ffffffffffffffffffffffffffffffffffffffff1673ffffffffffffffffffffffffffffffffffffffff16146103d5576040517f08c379a00000000000000000000000000000000000000000000000000000000081526004016103cc90610ada565b60405180910390fd5b60006103df61054a565b905080600001846040516103f39190610a6a565b908152602001604051809103902060000160009054906101000a900460ff16156104545782816000018560405161042a9190610a6a565b9081526020016040518091039020600101908051906020019061044e9291906105c0565b5061050b565b604051806040016040528060011515815260200184815250816000018560405161047e9190610a6a565b908152602001604051809103902060008201518160000160006101000a81548160ff02191690831515021790555060208201518160010190805190602001906104c89291906105c0565b5090505080600101849080600181540180825580915050600190039060005260206000200160009091909190915090805190602001906105099291906105c0565b505b7ff430c52db303dead99d87fc1ee0ec39f0225663bad1d64f070153975edff90e4848460405161053c929190610aa3565b60405180910390a150505050565b6000807f293babfe667d98cdff64efb5a2746fec30d863e1f431d4fd5388d7ef648adb0b90508091505090565b6000807fcda474466355d557cbe45e4216caf1702767769836ab9be7c9c775dafc95a0b090508091505090565b6040518060400160405280600015158152602001606081525090565b828054600181600116156101000203166002900490600052602060002090601f0160209004810192826105f6576000855561063d565b82601f1061060f57805160ff191683800117855561063d565b8280016001018555821561063d579182015b8281111561063c578251825591602001919060010190610621565b5b50905061064a919061064e565b5090565b5b8082111561066757600081600090555060010161064f565b5090565b600061067e61067984610b8d565b610b5c565b90508281526020810184848401111561069657600080fd5b6106a1848285610c3a565b509392505050565b60008083601f8401126106bb57600080fd5b8235905067ffffffffffffffff8111156106d457600080fd5b6020830191508360018202830111156106ec57600080fd5b9250929050565b600082601f83011261070457600080fd5b813561071484826020860161066b565b91505092915050565b6000806020838503121561073057600080fd5b600083013567ffffffffffffffff81111561074a57600080fd5b610756858286016106a9565b92509250509250929050565b6000806040838503121561077557600080fd5b600083013567ffffffffffffffff81111561078f57600080fd5b61079b858286016106f3565b925050602083013567ffffffffffffffff8111156107b857600080fd5b6107c4858286016106f3565b9150509250929050565b60006107da838361088b565b905092915050565b60006107ed82610bcd565b6107f78185610bf0565b93508360208202850161080985610bbd565b8060005b85811015610845578484038952815161082685826107ce565b945061083183610be3565b925060208a0199505060018101905061080d565b50829750879550505050505092915050565b61086081610c2e565b82525050565b60006108728385610c23565b935061087f838584610c3a565b82840190509392505050565b600061089682610bd8565b6108a08185610c01565b93506108b0818560208601610c49565b6108b981610c7e565b840191505092915050565b60006108cf82610bd8565b6108d98185610c12565b93506108e9818560208601610c49565b6108f281610c7e565b840191505092915050565b600061090882610bd8565b6109128185610c23565b9350610922818560208601610c49565b80840191505092915050565b600061093b602883610c12565b91507f4f6e6c79206f776e6572206f66207265706f7369746f72792069732061626c6560008301527f20746f20707573680000000000000000000000000000000000000000000000006020830152604082019050919050565b60006109a1600f83610c12565b91507f4e6f204349442070726f766964656400000000000000000000000000000000006000830152602082019050919050565b60006109e1601783610c12565b91507f4e6f206272616e6368206e616d652070726f76696465640000000000000000006000830152602082019050919050565b6000604083016000830151610a2c6000860182610857565b5060208301518482036020860152610a44828261088b565b9150508091505092915050565b6000610a5e828486610866565b91508190509392505050565b6000610a7682846108fd565b915081905092915050565b60006020820190508181036000830152610a9b81846107e2565b905092915050565b60006040820190508181036000830152610abd81856108c4565b90508181036020830152610ad181846108c4565b90509392505050565b60006020820190508181036000830152610af38161092e565b9050919050565b60006020820190508181036000830152610b1381610994565b9050919050565b60006020820190508181036000830152610b33816109d4565b9050919050565b60006020820190508181036000830152610b548184610a14565b905092915050565b6000604051905081810181811067ffffffffffffffff82111715610b8357610b82610c7c565b5b8060405250919050565b600067ffffffffffffffff821115610ba857610ba7610c7c565b5b601f19601f8301169050602081019050919050565b6000819050602082019050919050565b600081519050919050565b600081519050919050565b6000602082019050919050565b600082825260208201905092915050565b600082825260208201905092915050565b600082825260208201905092915050565b600081905092915050565b60008115159050919050565b82818337600083830152505050565b60005b83811015610c67578082015181840152602081019050610c4c565b83811115610c76576000848401525b50505050565bfe5b6000601f19601f830116905091905056fea26469706673582212207f48362844044dd43df76f3b87b3af72857aceb1ad42cf703f91fd6e01e98eb464736f6c63430007060033",
  "linkReferences": {},
  "deployedLinkReferences": {}
}