{
  "_format": "hh-sol-artifact-1",
  "contractName": "GitFactory",
  "sourceName": "contracts/GitFactory.sol",
  "abi": [
    {
      "inputs": [
        {
          "internalType": "contract GitContractRegistry",
          "name": "_gitContractRegistry",
          "type": "address"
        }
      ],
      "stateMutability": "nonpayable",
      "type": "constructor"
    },
    {
      "anonymous": false,
      "inputs": [
        {
          "indexed": false,
          "internalType": "string",
          "name": "name",
          "type": "string"
        },
        {
          "indexed": false,
          "internalType": "address",
          "name": "user",
          "type": "address"
        }
      ],
      "name": "NewRepositoryCreated",
      "type": "event"
    },
    {
      "anonymous": false,
      "inputs": [
        {
          "indexed": true,
          "internalType": "address",
          "name": "previousOwner",
          "type": "address"
        },
        {
          "indexed": true,
          "internalType": "address",
          "name": "newOwner",
          "type": "address"
        }
      ],
      "name": "OwnershipTransferred",
      "type": "event"
    },
    {
      "inputs": [],
      "name": "collectTips",
      "outputs": [],
      "stateMutability": "nonpayable",
      "type": "function"
    },
    {
      "inputs": [
        {
          "internalType": "string",
          "name": "_repoName",
          "type": "string"
        }
      ],
      "name": "createRepository",
      "outputs": [],
      "stateMutability": "nonpayable",
      "type": "function"
    },
    {
      "inputs": [
        {
          "internalType": "string",
          "name": "_repoName",
          "type": "string"
        }
      ],
      "name": "getRepositoriesUserList",
      "outputs": [
        {
          "internalType": "address[]",
          "name": "",
          "type": "address[]"
        }
      ],
      "stateMutability": "view",
      "type": "function"
    },
    {
      "inputs": [
        {
          "internalType": "bytes32",
          "name": "location",
          "type": "bytes32"
        }
      ],
      "name": "getRepository",
      "outputs": [
        {
          "components": [
            {
              "internalType": "bool",
              "name": "isActive",
              "type": "bool"
            },
            {
              "internalType": "string",
              "name": "name",
              "type": "string"
            },
            {
              "internalType": "contract GitRepository",
              "name": "location",
              "type": "address"
            }
          ],
          "internalType": "struct GitFactory.Repository",
          "name": "",
          "type": "tuple"
        }
      ],
      "stateMutability": "view",
      "type": "function"
    },
    {
      "inputs": [],
      "name": "getRepositoryNames",
      "outputs": [
        {
          "internalType": "string[]",
          "name": "",
          "type": "string[]"
        }
      ],
      "stateMutability": "view",
      "type": "function"
    },
    {
      "inputs": [
        {
          "internalType": "address",
          "name": "_owner",
          "type": "address"
        },
        {
          "internalType": "string",
          "name": "_repoName",
          "type": "string"
        }
      ],
      "name": "getUserRepoNameHash",
      "outputs": [
        {
          "internalType": "bytes32",
          "name": "",
          "type": "bytes32"
        }
      ],
      "stateMutability": "pure",
      "type": "function"
    },
    {
      "inputs": [
        {
          "internalType": "address",
          "name": "_owner",
          "type": "address"
        }
      ],
      "name": "getUsersRepositories",
      "outputs": [
        {
          "internalType": "string[]",
          "name": "",
          "type": "string[]"
        }
      ],
      "stateMutability": "view",
      "type": "function"
    },
    {
      "inputs": [],
      "name": "gitContractRegistry",
      "outputs": [
        {
          "internalType": "contract GitContractRegistry",
          "name": "",
          "type": "address"
        }
      ],
      "stateMutability": "view",
      "type": "function"
    },
    {
      "inputs": [],
      "name": "owner",
      "outputs": [
        {
          "internalType": "address",
          "name": "",
          "type": "address"
        }
      ],
      "stateMutability": "view",
      "type": "function"
    },
    {
      "inputs": [
        {
          "internalType": "string",
          "name": "repoName",
          "type": "string"
        },
        {
          "internalType": "uint256",
          "name": "userIndex",
          "type": "uint256"
        },
        {
          "internalType": "uint256",
          "name": "repoIndex",
          "type": "uint256"
        }
      ],
      "name": "removeRepository",
      "outputs": [],
      "stateMutability": "nonpayable",
      "type": "function"
    },
    {
      "inputs": [],
      "name": "renounceOwnership",
      "outputs": [],
      "stateMutability": "nonpayable",
      "type": "function"
    },
    {
      "inputs": [],
      "name": "tips",
      "outputs": [
        {
          "internalType": "uint256",
          "name": "",
          "type": "uint256"
        }
      ],
      "stateMutability": "view",
      "type": "function"
    },
    {
      "inputs": [
        {
          "internalType": "address",
          "name": "newOwner",
          "type": "address"
        }
      ],
      "name": "transferOwnership",
      "outputs": [],
      "stateMutability": "nonpayable",
      "type": "function"
    },
    {
      "stateMutability": "payable",
      "type": "receive"
    }
  ],
  "bytecode": "0x60806040523480156200001157600080fd5b50604051620038e6380380620038e683398181016040528101906200003791906200014e565b6000620000496200012f60201b60201c565b9050806000806101000a81548173ffffffffffffffffffffffffffffffffffffffff021916908373ffffffffffffffffffffffffffffffffffffffff1602179055508073ffffffffffffffffffffffffffffffffffffffff16600073ffffffffffffffffffffffffffffffffffffffff167f8be0079c531659141344cd1fd0a4f28419497f9722a3daafe3b4186f6b6457e060405160405180910390a35080600260006101000a81548173ffffffffffffffffffffffffffffffffffffffff021916908373ffffffffffffffffffffffffffffffffffffffff16021790555050620001dc565b600033905090565b6000815190506200014881620001c2565b92915050565b6000602082840312156200016157600080fd5b6000620001718482850162000137565b91505092915050565b60006200018782620001a2565b9050919050565b60006200019b826200017a565b9050919050565b600073ffffffffffffffffffffffffffffffffffffffff82169050919050565b620001cd816200018e565b8114620001d957600080fd5b50565b6136fa80620001ec6000396000f3fe608060405260043610620000d95760003560e01c80637e1ed27d116200008b578063a97aafdd1162000061578063a97aafdd14620002b4578063db6084f914620002f8578063ee94cf6d1462000328578063f2fde38b146200035657620000f1565b80637e1ed27d14620001fc5780638da5cb5b146200024057806390f24d73146200027057620000f1565b80631a4e1e7814620000f65780633796a4c914620001265780634da07e9a14620001545780636d9342fd1462000198578063715018a614620001b2578063719a629814620001cc57620000f1565b36620000f15734600160008282540192505081905550005b600080fd5b3480156200010357600080fd5b506200010e62000384565b6040516200011d919062002797565b60405180910390f35b3480156200013357600080fd5b506200015260048036038101906200014c9190620020dc565b6200038a565b005b3480156200016157600080fd5b506200018060048036038101906200017a919062002097565b62000e8e565b6040516200018f919062002611565b60405180910390f35b348015620001a557600080fd5b50620001b062000f41565b005b348015620001bf57600080fd5b50620001ca62001069565b005b348015620001d957600080fd5b50620001e4620011f2565b604051620001f3919062002635565b60405180910390f35b3480156200020957600080fd5b5062000228600480360381019062000222919062002011565b620012e3565b60405162000237919062002659565b60405180910390f35b3480156200024d57600080fd5b506200025862001318565b604051620002679190620025c0565b60405180910390f35b3480156200027d57600080fd5b506200029c60048036038101906200029691906200206b565b62001341565b604051620002ab919062002773565b60405180910390f35b348015620002c157600080fd5b50620002e06004803603810190620002da919062001f36565b6200148a565b604051620002ef919062002635565b60405180910390f35b3480156200030557600080fd5b5062000310620015bb565b6040516200031f919062002676565b60405180910390f35b3480156200033557600080fd5b506200035460048036038101906200034e919062002097565b620015e1565b005b3480156200036357600080fd5b506200038260048036038101906200037c919062001f36565b620017a2565b005b60015481565b6000620003983385620012e3565b90506003600001600082815260200190815260200160002060000160009054906101000a900460ff1662000403576040517f08c379a0000000000000000000000000000000000000000000000000000000008152600401620003fa90620026e9565b60405180910390fd5b60006003600001600083815260200190815260200160002060020160009054906101000a900473ffffffffffffffffffffffffffffffffffffffff1690506000808273ffffffffffffffffffffffffffffffffffffffff1663d035b5596040518163ffffffff1660e01b815260040160006040518083038186803b1580156200048b57600080fd5b505afa158015620004a0573d6000803e3d6000fd5b505050506040513d6000823e3d601f19601f82011682018060405250810190620004cb919062001f62565b90919293945090919293509091925050809250819350505081861462000528576040517f08c379a00000000000000000000000000000000000000000000000000000000081526004016200051f906200270b565b60405180910390fd5b8085146200056d576040517f08c379a000000000000000000000000000000000000000000000000000000000815260040162000564906200272d565b60405180910390fd5b6000600360010188604051620005849190620025a7565b9081526020016040518091039020805490509050806001880114156200060c57600360010188604051620005b99190620025a7565b9081526020016040518091039020805480620005d157fe5b6001900381819060005260206000200160006101000a81549073ffffffffffffffffffffffffffffffffffffffff0219169055905562000864565b600360010188604051620006219190620025a7565b908152602001604051809103902087815481106200063b57fe5b9060005260206000200160006101000a81549073ffffffffffffffffffffffffffffffffffffffff021916905560006003600101896040516200067f9190620025a7565b908152602001604051809103902060018303815481106200069c57fe5b9060005260206000200160009054906101000a900473ffffffffffffffffffffffffffffffffffffffff169050600360010189604051620006de9190620025a7565b9081526020016040518091039020805480620006f657fe5b6001900381819060005260206000200160006101000a81549073ffffffffffffffffffffffffffffffffffffffff021916905590558060036001018a604051620007419190620025a7565b908152602001604051809103902089815481106200075b57fe5b9060005260206000200160006101000a81548173ffffffffffffffffffffffffffffffffffffffff021916908373ffffffffffffffffffffffffffffffffffffffff1602179055506000620007b1828b620012e3565b905060006003600001600083815260200190815260200160002060020160009054906101000a900473ffffffffffffffffffffffffffffffffffffffff1690508073ffffffffffffffffffffffffffffffffffffffff16639ea6036e8b6040518263ffffffff1660e01b81526004016200082c919062002797565b600060405180830381600087803b1580156200084757600080fd5b505af11580156200085c573d6000803e3d6000fd5b505050505050505b6000600360020160003373ffffffffffffffffffffffffffffffffffffffff1673ffffffffffffffffffffffffffffffffffffffff168152602001908152602001600020805490509050806001880114156200092c57600360020160003373ffffffffffffffffffffffffffffffffffffffff1673ffffffffffffffffffffffffffffffffffffffff1681526020019081526020016000208054806200090657fe5b60019003818190600052602060002001600062000924919062001c7f565b905562000c2a565b600360020160003373ffffffffffffffffffffffffffffffffffffffff1673ffffffffffffffffffffffffffffffffffffffff16815260200190815260200160002087815481106200097a57fe5b90600052602060002001600062000992919062001c7f565b6000600360020160003373ffffffffffffffffffffffffffffffffffffffff1673ffffffffffffffffffffffffffffffffffffffff1681526020019081526020016000206001830381548110620009e557fe5b906000526020600020018054600181600116156101000203166002900480601f01602080910402602001604051908101604052809291908181526020018280546001816001161561010002031660029004801562000a875780601f1062000a5b5761010080835404028352916020019162000a87565b820191906000526020600020905b81548152906001019060200180831162000a6957829003601f168201915b50505050509050600360020160003373ffffffffffffffffffffffffffffffffffffffff1673ffffffffffffffffffffffffffffffffffffffff16815260200190815260200160002080548062000ada57fe5b60019003818190600052602060002001600062000af8919062001c7f565b905580600360020160003373ffffffffffffffffffffffffffffffffffffffff1673ffffffffffffffffffffffffffffffffffffffff168152602001908152602001600020898154811062000b4957fe5b90600052602060002001908051906020019062000b6892919062001ccb565b50600062000b773383620012e3565b905060006003600001600083815260200190815260200160002060020160009054906101000a900473ffffffffffffffffffffffffffffffffffffffff1690508073ffffffffffffffffffffffffffffffffffffffff1663708da6f48b6040518263ffffffff1660e01b815260040162000bf2919062002797565b600060405180830381600087803b15801562000c0d57600080fd5b505af115801562000c22573d6000803e3d6000fd5b505050505050505b600060036001018a60405162000c419190620025a7565b908152602001604051809103902080549050141562000e5157600060036004018a60405162000c719190620025a7565b908152602001604051809103902060000160006101000a81548160ff021916908315150217905550600060036004018a60405162000cb09190620025a7565b90815260200160405180910390206001015490506001600380018054905003811462000e215760038001818154811062000ce657fe5b90600052602060002001600062000cfe919062001c7f565b60006003800160016003800180549050038154811062000d1a57fe5b906000526020600020018054600181600116156101000203166002900480601f01602080910402602001604051908101604052809291908181526020018280546001816001161561010002031660029004801562000dbc5780601f1062000d905761010080835404028352916020019162000dbc565b820191906000526020600020905b81548152906001019060200180831162000d9e57829003601f168201915b505050505090508060038001838154811062000dd457fe5b90600052602060002001908051906020019062000df392919062001ccb565b508160036004018260405162000e0a9190620025a7565b908152602001604051809103902060010181905550505b6003800180548062000e2f57fe5b60019003818190600052602060002001600062000e4d919062001c7f565b9055505b60006003600001600088815260200190815260200160002060000160006101000a81548160ff021916908315150217905550505050505050505050565b606060036001018260405162000ea59190620025a7565b908152602001604051809103902080548060200260200160405190810160405280929190818152602001828054801562000f3557602002820191906000526020600020905b8160009054906101000a900473ffffffffffffffffffffffffffffffffffffffff1673ffffffffffffffffffffffffffffffffffffffff168152602001906001019080831162000eea575b50505050509050919050565b62000f4b620019b2565b73ffffffffffffffffffffffffffffffffffffffff1660008054906101000a900473ffffffffffffffffffffffffffffffffffffffff1673ffffffffffffffffffffffffffffffffffffffff16146200100c576040517f08c379a00000000000000000000000000000000000000000000000000000000081526004018080602001828103825260208152602001807f4f776e61626c653a2063616c6c6572206973206e6f7420746865206f776e657281525060200191505060405180910390fd5b6200101662001318565b73ffffffffffffffffffffffffffffffffffffffff166108fc6001549081150290604051600060405180830381858888f193505050501580156200105e573d6000803e3d6000fd5b506000600181905550565b62001073620019b2565b73ffffffffffffffffffffffffffffffffffffffff1660008054906101000a900473ffffffffffffffffffffffffffffffffffffffff1673ffffffffffffffffffffffffffffffffffffffff161462001134576040517f08c379a00000000000000000000000000000000000000000000000000000000081526004018080602001828103825260208152602001807f4f776e61626c653a2063616c6c6572206973206e6f7420746865206f776e657281525060200191505060405180910390fd5b600073ffffffffffffffffffffffffffffffffffffffff1660008054906101000a900473ffffffffffffffffffffffffffffffffffffffff1673ffffffffffffffffffffffffffffffffffffffff167f8be0079c531659141344cd1fd0a4f28419497f9722a3daafe3b4186f6b6457e060405160405180910390a360008060006101000a81548173ffffffffffffffffffffffffffffffffffffffff021916908373ffffffffffffffffffffffffffffffffffffffff160217905550565b606060038001805480602002602001604051908101604052809291908181526020016000905b82821015620012da578382906000526020600020018054600181600116156101000203166002900480601f016020809104026020016040519081016040528092919081815260200182805460018160011615610100020316600290048015620012c55780601f106200129957610100808354040283529160200191620012c5565b820191906000526020600020905b815481529060010190602001808311620012a757829003601f168201915b50505050508152602001906001019062001218565b50505050905090565b60008282604051602001620012fa929190620025dd565b60405160208183030381529060405280519060200120905092915050565b60008060009054906101000a900473ffffffffffffffffffffffffffffffffffffffff16905090565b6200134b62001d62565b600360000160008381526020019081526020016000206040518060600160405290816000820160009054906101000a900460ff16151515158152602001600182018054600181600116156101000203166002900480601f016020809104026020016040519081016040528092919081815260200182805460018160011615610100020316600290048015620014245780601f10620013f85761010080835404028352916020019162001424565b820191906000526020600020905b8154815290600101906020018083116200140657829003601f168201915b505050505081526020016002820160009054906101000a900473ffffffffffffffffffffffffffffffffffffffff1673ffffffffffffffffffffffffffffffffffffffff1673ffffffffffffffffffffffffffffffffffffffff16815250509050919050565b6060600360020160008373ffffffffffffffffffffffffffffffffffffffff1673ffffffffffffffffffffffffffffffffffffffff168152602001908152602001600020805480602002602001604051908101604052809291908181526020016000905b82821015620015b0578382906000526020600020018054600181600116156101000203166002900480601f0160208091040260200160405190810160405280929190818152602001828054600181600116156101000203166002900480156200159b5780601f106200156f576101008083540402835291602001916200159b565b820191906000526020600020905b8154815290600101906020018083116200157d57829003601f168201915b505050505081526020019060010190620014ee565b505050509050919050565b600260009054906101000a900473ffffffffffffffffffffffffffffffffffffffff1681565b6000620015ef3383620012e3565b90506003600001600082815260200190815260200160002060000160009054906101000a900460ff16156200165b576040517f08c379a00000000000000000000000000000000000000000000000000000000081526004016200165290620026c7565b60405180910390fd5b60006040518060a001604052803373ffffffffffffffffffffffffffffffffffffffff1681526020013073ffffffffffffffffffffffffffffffffffffffff168152602001848152602001600360010185604051620016bb9190620025a7565b9081526020016040518091039020805490508152602001600360020160003373ffffffffffffffffffffffffffffffffffffffff1673ffffffffffffffffffffffffffffffffffffffff16815260200190815260200160002080549050815250604051620017299062001d9b565b6200173591906200274f565b604051809103906000f08015801562001752573d6000803e3d6000fd5b50905062001762828483620019ba565b7f3d8c7158d758ddccd015fb747eefe6899ac419d5426accaa4e7e0ac4cde21ed583336040516200179592919062002693565b60405180910390a1505050565b620017ac620019b2565b73ffffffffffffffffffffffffffffffffffffffff1660008054906101000a900473ffffffffffffffffffffffffffffffffffffffff1673ffffffffffffffffffffffffffffffffffffffff16146200186d576040517f08c379a00000000000000000000000000000000000000000000000000000000081526004018080602001828103825260208152602001807f4f776e61626c653a2063616c6c6572206973206e6f7420746865206f776e657281525060200191505060405180910390fd5b600073ffffffffffffffffffffffffffffffffffffffff168173ffffffffffffffffffffffffffffffffffffffff161415620018f5576040517f08c379a00000000000000000000000000000000000000000000000000000000081526004018080602001828103825260268152602001806200369f6026913960400191505060405180910390fd5b8073ffffffffffffffffffffffffffffffffffffffff1660008054906101000a900473ffffffffffffffffffffffffffffffffffffffff1673ffffffffffffffffffffffffffffffffffffffff167f8be0079c531659141344cd1fd0a4f28419497f9722a3daafe3b4186f6b6457e060405160405180910390a3806000806101000a81548173ffffffffffffffffffffffffffffffffffffffff021916908373ffffffffffffffffffffffffffffffffffffffff16021790555050565b600033905090565b60405180606001604052806001151581526020018381526020018273ffffffffffffffffffffffffffffffffffffffff168152506003600001600085815260200190815260200160002060008201518160000160006101000a81548160ff021916908315150217905550602082015181600101908051906020019062001a4292919062001ccb565b5060408201518160020160006101000a81548173ffffffffffffffffffffffffffffffffffffffff021916908373ffffffffffffffffffffffffffffffffffffffff16021790555090505060036001018260405162001aa29190620025a7565b9081526020016040518091039020339080600181540180825580915050600190039060005260206000200160009091909190916101000a81548173ffffffffffffffffffffffffffffffffffffffff021916908373ffffffffffffffffffffffffffffffffffffffff160217905550600360020160003373ffffffffffffffffffffffffffffffffffffffff1673ffffffffffffffffffffffffffffffffffffffff1681526020019081526020016000208290806001815401808255809150506001900390600052602060002001600090919091909150908051906020019062001b8e92919062001ccb565b5060036004018260405162001ba49190620025a7565b908152602001604051809103902060000160009054906101000a900460ff1662001c7a57600160036004018360405162001bdf9190620025a7565b908152602001604051809103902060000160006101000a81548160ff021916908315150217905550600380018054905060036004018360405162001c249190620025a7565b908152602001604051809103902060010181905550600380018290806001815401808255809150506001900390600052602060002001600090919091909150908051906020019062001c7892919062001ccb565b505b505050565b50805460018160011615610100020316600290046000825580601f1062001ca7575062001cc8565b601f01602090049060005260206000209081019062001cc7919062001da9565b5b50565b828054600181600116156101000203166002900490600052602060002090601f01602090048101928262001d03576000855562001d4f565b82601f1062001d1e57805160ff191683800117855562001d4f565b8280016001018555821562001d4f579182015b8281111562001d4e57825182559160200191906001019062001d31565b5b50905062001d5e919062001da9565b5090565b604051806060016040528060001515815260200160608152602001600073ffffffffffffffffffffffffffffffffffffffff1681525090565b610be98062002ab683390190565b5b8082111562001dc457600081600090555060010162001daa565b5090565b600062001ddf62001dd984620027e8565b620027b4565b90508281526020810184848401111562001df857600080fd5b62001e05848285620029f5565b509392505050565b600062001e2462001e1e84620027e8565b620027b4565b90508281526020810184848401111562001e3d57600080fd5b62001e4a84828562002a04565b509392505050565b60008135905062001e638162002a4d565b92915050565b60008151905062001e7a8162002a4d565b92915050565b60008135905062001e918162002a67565b92915050565b60008151905062001ea88162002a81565b92915050565b600082601f83011262001ec057600080fd5b813562001ed284826020860162001dc8565b91505092915050565b600082601f83011262001eed57600080fd5b815162001eff84826020860162001e0d565b91505092915050565b60008135905062001f198162002a9b565b92915050565b60008151905062001f308162002a9b565b92915050565b60006020828403121562001f4957600080fd5b600062001f598482850162001e52565b91505092915050565b60008060008060008060c0878903121562001f7c57600080fd5b600062001f8c89828a0162001e69565b965050602062001f9f89828a0162001e97565b955050604087015167ffffffffffffffff81111562001fbd57600080fd5b62001fcb89828a0162001edb565b945050606062001fde89828a0162001f1f565b935050608062001ff189828a0162001f1f565b92505060a06200200489828a0162001f1f565b9150509295509295509295565b600080604083850312156200202557600080fd5b6000620020358582860162001e52565b925050602083013567ffffffffffffffff8111156200205357600080fd5b620020618582860162001eae565b9150509250929050565b6000602082840312156200207e57600080fd5b60006200208e8482850162001e80565b91505092915050565b600060208284031215620020aa57600080fd5b600082013567ffffffffffffffff811115620020c557600080fd5b620020d38482850162001eae565b91505092915050565b600080600060608486031215620020f257600080fd5b600084013567ffffffffffffffff8111156200210d57600080fd5b6200211b8682870162001eae565b93505060206200212e8682870162001f08565b9250506040620021418682870162001f08565b9150509250925092565b60006200215983836200218c565b60208301905092915050565b6000620021738383620022ee565b905092915050565b620021868162002941565b82525050565b6200219781620028c5565b82525050565b620021a881620028c5565b82525050565b6000620021bb826200283b565b620021c7818562002876565b9350620021d4836200281b565b8060005b838110156200220b578151620021ef88826200214b565b9750620021fc836200285c565b925050600181019050620021d8565b5085935050505092915050565b6000620022258262002846565b62002231818562002887565b93508360208202850162002245856200282b565b8060005b8581101562002287578484038952815162002265858262002165565b9450620022728362002869565b925060208a0199505060018101905062002249565b50829750879550505050505092915050565b620022a481620028ed565b82525050565b620022b581620028f9565b82525050565b620022c68162002955565b82525050565b620022d7816200297d565b82525050565b620022e881620029a5565b82525050565b6000620022fb8262002851565b62002307818562002898565b93506200231981856020860162002a04565b620023248162002a3c565b840191505092915050565b60006200233c8262002851565b620023488185620028a9565b93506200235a81856020860162002a04565b620023658162002a3c565b840191505092915050565b60006200237d8262002851565b620023898185620028ba565b93506200239b81856020860162002a04565b80840191505092915050565b6000620023b6601983620028a9565b91507f5265706f7369746f72792065786973747320616c7265616479000000000000006000830152602082019050919050565b6000620023f8601883620028a9565b91507f5265706f7369746f727920646f65736e277420657869737400000000000000006000830152602082019050919050565b60006200243a601f83620028a9565b91507f5573657220496e6465782076616c7565206973206e6f7420636f7272656374006000830152602082019050919050565b60006200247c601f83620028a9565b91507f5265706f20496e6465782076616c7565206973206e6f7420636f7272656374006000830152602082019050919050565b600060a083016000830151620024c960008601826200218c565b506020830151620024de6020860182620022cc565b5060408301518482036040860152620024f88282620022ee565b91505060608301516200250f606086018262002585565b50608083015162002524608086018262002585565b508091505092915050565b600060608301600083015162002549600086018262002299565b5060208301518482036020860152620025638282620022ee565b91505060408301516200257a6040860182620022dd565b508091505092915050565b620025908162002937565b82525050565b620025a18162002937565b82525050565b6000620025b5828462002370565b915081905092915050565b6000602082019050620025d760008301846200219d565b92915050565b6000604082019050620025f460008301856200219d565b81810360208301526200260881846200232f565b90509392505050565b600060208201905081810360008301526200262d8184620021ae565b905092915050565b6000602082019050818103600083015262002651818462002218565b905092915050565b6000602082019050620026706000830184620022aa565b92915050565b60006020820190506200268d6000830184620022bb565b92915050565b60006040820190508181036000830152620026af81856200232f565b9050620026c060208301846200217b565b9392505050565b60006020820190508181036000830152620026e281620023a7565b9050919050565b600060208201905081810360008301526200270481620023e9565b9050919050565b6000602082019050818103600083015262002726816200242b565b9050919050565b6000602082019050818103600083015262002748816200246d565b9050919050565b600060208201905081810360008301526200276b8184620024af565b905092915050565b600060208201905081810360008301526200278f81846200252f565b905092915050565b6000602082019050620027ae600083018462002596565b92915050565b6000604051905081810181811067ffffffffffffffff82111715620027de57620027dd62002a3a565b5b8060405250919050565b600067ffffffffffffffff82111562002806576200280562002a3a565b5b601f19601f8301169050602081019050919050565b6000819050602082019050919050565b6000819050602082019050919050565b600081519050919050565b600081519050919050565b600081519050919050565b6000602082019050919050565b6000602082019050919050565b600082825260208201905092915050565b600082825260208201905092915050565b600082825260208201905092915050565b600082825260208201905092915050565b600081905092915050565b6000620028d28262002917565b9050919050565b6000620028e68262002917565b9050919050565b60008115159050919050565b6000819050919050565b60006200291082620028d9565b9050919050565b600073ffffffffffffffffffffffffffffffffffffffff82169050919050565b6000819050919050565b60006200294e82620029cd565b9050919050565b6000620029628262002969565b9050919050565b6000620029768262002917565b9050919050565b60006200298a8262002991565b9050919050565b60006200299e8262002917565b9050919050565b6000620029b282620029b9565b9050919050565b6000620029c68262002917565b9050919050565b6000620029da82620029e1565b9050919050565b6000620029ee8262002917565b9050919050565b82818337600083830152505050565b60005b8381101562002a2457808201518184015260208101905062002a07565b8381111562002a34576000848401525b50505050565bfe5b6000601f19601f8301169050919050565b62002a5881620028c5565b811462002a6457600080fd5b50565b62002a7281620028f9565b811462002a7e57600080fd5b50565b62002a8c8162002903565b811462002a9857600080fd5b50565b62002aa68162002937565b811462002ab257600080fd5b5056fe608060405260405162000be938038062000be9833981810160405281019062000029919062000403565b62000057816020015182604001518360600151846080015185600001516200005e60201b620002551760201c565b506200059b565b600062000070620001bb60201b60201c565b9050858160010160006101000a81548173ffffffffffffffffffffffffffffffffffffffff021916908373ffffffffffffffffffffffffffffffffffffffff16021790555084816002019080519060200190620000cf929190620001e8565b5083816003018190555082816004018190555060008160000160009054906101000a900473ffffffffffffffffffffffffffffffffffffffff169050828260000160006101000a81548173ffffffffffffffffffffffffffffffffffffffff021916908373ffffffffffffffffffffffffffffffffffffffff160217905550600082600501819055508273ffffffffffffffffffffffffffffffffffffffff168173ffffffffffffffffffffffffffffffffffffffff167f8be0079c531659141344cd1fd0a4f28419497f9722a3daafe3b4186f6b6457e060405160405180910390a350505050505050565b6000807fcda474466355d557cbe45e4216caf1702767769836ab9be7c9c775dafc95a0b090508091505090565b828054600181600116156101000203166002900490600052602060002090601f0160209004810192826200022057600085556200026c565b82601f106200023b57805160ff19168380011785556200026c565b828001600101855582156200026c579182015b828111156200026b5782518255916020019190600101906200024e565b5b5090506200027b91906200027f565b5090565b5b808211156200029a57600081600090555060010162000280565b5090565b6000620002b5620002af846200047c565b62000448565b905082815260208101848484011115620002ce57600080fd5b620002db84828562000515565b509392505050565b600081519050620002f4816200054d565b92915050565b6000815190506200030b8162000567565b92915050565b600082601f8301126200032357600080fd5b8151620003358482602086016200029e565b91505092915050565b600060a082840312156200035157600080fd5b6200035d60a062000448565b905060006200036f84828501620002e3565b60008301525060206200038584828501620002fa565b602083015250604082015167ffffffffffffffff811115620003a657600080fd5b620003b48482850162000311565b6040830152506060620003ca84828501620003ec565b6060830152506080620003e084828501620003ec565b60808301525092915050565b600081519050620003fd8162000581565b92915050565b6000602082840312156200041657600080fd5b600082015167ffffffffffffffff8111156200043157600080fd5b6200043f848285016200033e565b91505092915050565b6000604051905081810181811067ffffffffffffffff821117156200047257620004716200054b565b5b8060405250919050565b600067ffffffffffffffff8211156200049a57620004996200054b565b5b601f19601f8301169050602081019050919050565b6000620004bc82620004eb565b9050919050565b6000620004d082620004eb565b9050919050565b6000620004e482620004c3565b9050919050565b600073ffffffffffffffffffffffffffffffffffffffff82169050919050565b6000819050919050565b60005b838110156200053557808201518184015260208101905062000518565b8381111562000545576000848401525b50505050565bfe5b6200055881620004af565b81146200056457600080fd5b50565b6200057281620004d7565b81146200057e57600080fd5b50565b6200058c816200050b565b81146200059857600080fd5b50565b61063e80620005ab6000396000f3fe60806040523661002a576000610013610228565b905034816005016000828254019250508190555050005b6000610034610228565b905060008160010160009054906101000a900473ffffffffffffffffffffffffffffffffffffffff16905060008173ffffffffffffffffffffffffffffffffffffffff1663db6084f96040518163ffffffff1660e01b815260040160206040518083038186803b1580156100a757600080fd5b505afa1580156100bb573d6000803e3d6000fd5b505050506040513d601f19601f820116820180604052508101906100df91906104a6565b905060008173ffffffffffffffffffffffffffffffffffffffff1663ce05bfc76000357fffffffff00000000000000000000000000000000000000000000000000000000166040518263ffffffff1660e01b8152600401610140919061051e565b60206040518083038186803b15801561015857600080fd5b505afa15801561016c573d6000803e3d6000fd5b505050506040513d601f19601f82011682018060405250810190610190919061047d565b9050600073ffffffffffffffffffffffffffffffffffffffff168173ffffffffffffffffffffffffffffffffffffffff161415610202576040517f08c379a00000000000000000000000000000000000000000000000000000000081526004016101f990610539565b60405180910390fd5b3660008037600080366000845af43d6000803e8060008114610223573d6000f35b3d6000fd5b6000807fcda474466355d557cbe45e4216caf1702767769836ab9be7c9c775dafc95a0b090508091505090565b600061025f610228565b9050858160010160006101000a81548173ffffffffffffffffffffffffffffffffffffffff021916908373ffffffffffffffffffffffffffffffffffffffff160217905550848160020190805190602001906102bc9291906103a8565b5083816003018190555082816004018190555060008160000160009054906101000a900473ffffffffffffffffffffffffffffffffffffffff169050828260000160006101000a81548173ffffffffffffffffffffffffffffffffffffffff021916908373ffffffffffffffffffffffffffffffffffffffff160217905550600082600501819055508273ffffffffffffffffffffffffffffffffffffffff168173ffffffffffffffffffffffffffffffffffffffff167f8be0079c531659141344cd1fd0a4f28419497f9722a3daafe3b4186f6b6457e060405160405180910390a350505050505050565b828054600181600116156101000203166002900490600052602060002090601f0160209004810192826103de5760008555610425565b82601f106103f757805160ff1916838001178555610425565b82800160010185558215610425579182015b82811115610424578251825591602001919060010190610409565b5b5090506104329190610436565b5090565b5b8082111561044f576000816000905550600101610437565b5090565b600081519050610462816105da565b92915050565b600081519050610477816105f1565b92915050565b60006020828403121561048f57600080fd5b600061049d84828501610453565b91505092915050565b6000602082840312156104b857600080fd5b60006104c684828501610468565b91505092915050565b6104d88161057c565b82525050565b60006104eb602083610559565b91507f4469616d6f6e643a2046756e6374696f6e20646f6573206e6f742065786973746000830152602082019050919050565b600060208201905061053360008301846104cf565b92915050565b60006020820190508181036000830152610552816104de565b9050919050565b600082825260208201905092915050565b6000610575826105ba565b9050919050565b60007fffffffff0000000000000000000000000000000000000000000000000000000082169050919050565b60006105b38261056a565b9050919050565b600073ffffffffffffffffffffffffffffffffffffffff82169050919050565b6105e38161056a565b81146105ee57600080fd5b50565b6105fa816105a8565b811461060557600080fd5b5056fea2646970667358221220ba8e4c81ae61e9b182ed46a5acc8350c9a70d038b7bd3e372427ec79a763508764736f6c634300070600334f776e61626c653a206e6577206f776e657220697320746865207a65726f2061646472657373a2646970667358221220dd0e6717e6c7b54573f5c9cbc7355587790c6d33a7fd3b338a6a34a2abb7456064736f6c63430007060033",
  "linkReferences": {},
  "deployedLinkReferences": {}
}